:020000040000FA
:80000000FFFF62FF3F00FFFFFFFFFFFFFFFFFFFFFFFFFFFFFFFFFFFFFFFFFFFFFFFFFFFFFFFFFFFFFFFFFFFFFFFFFFFFFFFFFFFFFFFFFFFFFFFFFFFFFFFFFFFFFFFFFFFFFFFFFFFFFFFFFFFFFFFFFFFFFFFFFFFFFFFFFFFFFFFFFFFFFFFFFFFFFFFFFFFFFFFFFFFFFFFFFFA00C94013000064A000800016500049000120006C8041000018B
:800080002000CC94A91260A6CA4019280365A00C980100000000000000000000000000000000049481325006C04019000325A00C80013005A6C01490020340000800293005A6C014980253600A4C811960FC0015A0024800095000048000A80002E0001C0009F00320800010002AA00514801650012A4005A80015A00200000000000000F5
:8001000000000000000000000002A00254800A20012A80042800154002A80015A0025080048000100005A80015A00254800A50012A400510FC000000000000000000000000000000000000000000000000000000004000080008000004000020000080000000000000000000000000000000000000000010000000000800000000000000D2
:800180000000000000000000000000000000000080000000020000080000B0FB000480000000004000000000200000000000000000000000000000000000000000000000000000000000000000000000000000000000000000000000000000000000000000000000020000000008000020000000000000004000000000000000000000007C
:800200000028F9000120000000001000000000080000000004000010000000000080382007048013740002C001284007A0000000000000000000000000000000000000E00014800300000A00003800050000E0001480475000000000001007A0049C0042700008C009200107B0FA0602C00000000004000000008000004000500000D01023
:80028000000000000000901001808640000A40012800044000000000000000000000400000000000000080109000010000020000800020000020018400000000000000000001200004820010200040000800A0E1FC00000000000000000000000000000000000000000000000000000000000000000000000000000000000000000000001C
:8003000000000000000000000000002008000000000000000000000000000080405084004000680400000000000000000000000000000044000040F800000000000000000000000000000000000000000000000000000000000000000000000000000000000000000000000000000000000000000000008000000000000000000000000019
:80038000000000000200000000421000000000000000000000000000000000000000FE00000000000000000000000000000000000000000000000000000000000000000000000000000000000000000000000000000000000000000000800101000000000000000000000000000000C80000000160100000000000000000000000000000F0
:800400006000000000FD00000000000000000000000000000000000000000000000000000000000000000000000000000000000000000000000000000000000000000000000800000000000000000000000000000010C008010010610400000000000000000000000000000000000048FA0000000000000000000000000000000000000087
:80048000000000000000000000000000000000000000000000000000000000000000000000000000000000801000000000000000000000000000000020C204000023600100000000000000000000000000008009020040FD00000000000000000000000000000000000000000000000000000000000000000000000000000000000000003A
:800500000000000000000000000000000000600102000000000000000000000000008001F02000C08378200000000000000000000000000000C001000080FD000000000000000000000000000000000000000000000000000000000000000000000000000000000000000000000000000000000000000000008000010000000000000000ED
:8005800000000000000004C000000003600000000000000000000000000000008001000028FC00000000000000000000000000000000000000000000000000000000000000000000000000000000000000000000000000000000000000000000800100000000000000000000000000000010C42000000B620A000000000000000000000043
:8006000000000080010000E0FB1000000000000000000000000000000000001000000000000000000000000000000000000000000000000000000000000000000000000000000020000100000000000000000000200000800610020040000801000000000000000000000000000020000000F8F900000000000000000000000000000000CB
:80068000000000000000000000000000000000000000000000000000000000000000000000000C0000000000000006000000000000000000000000000000000401200000000110000000000000000000000000000000000000F8F90000000000000000000000000000000000000000000000000000000000000000000000000000000000C1
:8007000000000000000000000008000000000000008401000000000000000000000000000000064000000000000000000000000000000000000000000000000030FA0C0000000000000000000000000000000000000000000000000000000000000000000000000000000000000000000000000000000000000000000090000000000000E0
:800780000000000000000000004601440000500014000000000000000000000000000000040100DAFD140000000000000000000000000000000000C0040000000000000000000000000000000000000000000000000000000000000000000000000000801000000000000000000000008005020006C0440000000001000000000000000034
:800800000000000000000084000098FF000000000000000000000000000000000000F080000000000000000000000000000000000000000000000000000000000000000000000000000060810000000000000000000000E001008007F20000C0021C4000000000000000000000000000006000000078F908000000000000000000000000BB
:800880000000000000C0000000000000000000000000000000000000000000000000000000000000000000000000000000800001000000000000000000000000000006C400000003200000000000000000000000000000000000000061FE000000000000000000000000000000000000C000000000000000000000000000000000000000AB
:800900000000000000000000000000000000000000000000800500000000000000000000000084000006C04800008B602200000000000000000000000000008085000018FC00000000000000000000000000000000000000000000000000000000000000000000000000000000000000000000000000000000000000000000200800000012
:80098000000000000000000020100180401008014000084400000000000000000000000000002004000088F8000000000000000000000000000000000000000000000000000000000000000000000000000000000000000000000000000000000000000000000080000000000000000000000000000000000200000000000000000000003B
:800A000000000000000000000000800000C0F900000000000000000000000000000000000000000000000000000000000000000000000000000000000000000000000000000000000000000000E00101000000000000000000000000020000C8800000000080000000000000000000000000000000800000D8FB0800000000000000000036
:800A800000000000000000000000000000000000000000000000000000000000000000000000000000000000000000000000000000080000000000000000000000000800001000040000000102000000000000000000000000000000040000FAFB0000000000000000000000000000000000000000000000000000000000000000000000D6
:800B000000000000000000000000000000000000000000000000008008010000000000000000000000880000004804000023042200000000000000000000000000000088000098FD00000000000000000000000000000000000000000000000000000000000000000000000000000000000000000000000000000000000000000000600151
:800B800000000000000000000000006000008001B08000C000180000000000000000000000000000006000000008FF0400000000000000000000000000000000000000000000000000000000000000000000000000000000000000000000000000000000000000000080800000000000000000000000000100000444000000004100000017
:800C000000000000000000000000000000010000E9F900000000000000000000000000000000000000000000000000000000000000000000000000000000000000000000000000000000000000000000800900000000000000000000000011020010C080000008002400000000000000000000000000000004010050FA000000000000002A
:800C800000000000000000000000000000000000000000000000000000000000000000000000000000000000000000000000000000000020080000000000000000000000208800804010820040080A04010000000000000000000000000000440000F8FF000000000000000000000000000000000000000000000000000000000000000040
:800D000000000000000000000000000000000000000000000000000000000080000000000000000000000000000000000200000000002000000000000000000000000000000000000040FB00000000000000000000000000000000000000000000000000000000000000000000000000000000000000000000000000000000000000000096
:800D800000E0010100000000000000000000000001000008000100000020000000000000000000000000000060000000E8FA080000000000000000000000000000000000000000000000000000000000000000000000000000000000000000000000000000000000000000000008000000000000000000000000000000100002000020045F
:800E00000400000000000000000000000000000000000012FC00000000000000000000000000000000000000000000000000000000000000000000000000000000000000000000000000000000000000000000800000000000000000000000000000020010004800002001804C100000000000000000000000008001000038FD00000000D3
:800E8000000000000000000000000000000000000000000000000000000000000000000000000000000000000000000000000000000000000000600102000000000000000000006000008001B20000C00218000F00000000000000000000000000C001010068FA0400000000000000000000000000000000000000000000000000000000EB
:800F00000000000000000000000000000000000000000000000000000000000000800002000000000000000000000001010004C42000008300400C0000000000000000000000000080010000E1FD000000000000000000000000000000000000000000000000000000000000000000000000000000000000000000000000000000000000D7
:800F800000000000800900000000000000000000000010000010C00800002340000C000000000000000000000000008001000070FE10000000000000000000000000000000000000000000000000000000000000000000000000000000000000000000000000000000000000000000200800000000000000000000002004008000108800AE
:801000004008094000000000000000000000000000002000000014F80000000000000000000000000000000000000000000000000000000000000000000000000000000000000000000000000000000000000000000000800000000000000000000000004000000004000000000000000000000000000000000000000080010000F8FC007A
:80108000000000000000000000000000000000000000000000000000000000000000000000000000000000000000000000000000000000000000000000E0010100000000000000000000000000000402000000000000000000000000000000000000000080010000C0FA0C00000000000000000000000000000000000000000000000000C1
:80110000000000000000000000000000000000000000000000000000000000000000000000080000000000000000000000005000001000480000080242000000000000000000000000000080050100ABF814000000000000000000000000000000000000000000000000000000000000000000000000000000000000000000000000000036
:80118000000000000000008010010000000000000000000000040000060108000020000100000000000000000000000000008085000009FB00000000000000000000000000000000000000000000000000000000000000000000000000000000000000000000000000000000000000000000600100000000000000000000006000018007D8
:80120000304000C00019800000000000000000000000000000E001000040F90800000000000000000000000000000000000000000000000000000000000000000000000000000000000000000000000000000000000000000080000000000000000000000000800000000608400000000100000000000000000000000000000080010000B3
:801280001AFD00000000000000000000000000000000000000000000000000000000000000000000000000000000000000000000000000000000000000000000800101000000000000000000008009010006400200001140410000000000000000000000000000808500000CF80000000000000000000000000000000000000000000000E8
:80130000000000000000000000000000000000000000000000000000000000000000000000000020080000000000000000000000208800800610020040200A4400000000000000000000000000002084040084FA00000000000000000000000000000000000000000000000000000000000000000000000000000000000000000000000031
:801380000000000000000000000000800000000000000000000000000000000600800000000000000000000000000000000000000000000000E0FF0000000000000000000000000000000000000000000000000000000000000000000000000000000000000000000000000000000000000000000080010100000000000000000000000086
:8014000001000640000000000080000000000000000000000000000000000000E0FB000000000000000000000000000000000000000000000000000000000000000000000000000000000000000000000000000000000000000000000008000000000000000000000000000000060044000020010200000000000000000000000000000055
:801480000401009BFC00000000000000000000000000000000000000000000000000000000000000000000000000000000000000000000000000000000000000000000800800000000000000000000000000020020C1000000100122000000000000000000000000000000043006C9FA0000000000000000000000000000000000000000B5
:801500000000000000000000000000000000000000000000000000000000000000000000000000000000600101000000000000000000006000008001F08000C0001800000000000000000000000000000060803C0012FF000000000000000000000000000000000000000000000000000000000000000000000000000000000000000000B3
:8015800000000000000000000000000000800001000000000000000000000001000000C000000002422000000000000000000000000000000080300012FA00000000000000000000000000000000000000000000000000000000000000000000000000000000000000000000000000000000000000000000801100000000000000000000F8
:80160000000010020000C048000012400000000000000000000000000000008010300062FA1000000000000000000000000000000000000000000000000000000000000000000000000000000000000000000000000000000000000000000020000100000000000000000000200402800050840040110A22000000000000000000000000BA
:8016800000002004010058FC0000000000000000000000000000000000000000000000000000000000000000000000000000000000000000000000000000000000000000000000000000000000000000000000000000000004000000000000000000000000000000000000000000000000A0F90000000000000000000000000000000000D4
:801700000000000000000000000000000000000000000000000000000000000000000000000000000000000000800100000000000000000000000000020004C200000003004000000000000000000000000000008000010048FE0C00000000000000000000000000000000000000000000000000000000000000000000000000000000000A
:8017800000000000000000000000000000000000009000000000000000000000000010000010C000010043000000000000000000000000000000000010000010FB1400000000000000000000000000000000000000000000000000000000000000000000000000000000000000000000000000000000000000000080040000000000000082
:80180000000000000004000006C1200000130080000000000000000000000000000080010200B0FE00000000000000000000000000000000000000000000000000000000000000000000000000000000000000000000000000000000000000000000600102000000000000000000006080008007F00000C0831800000000000000000000A4
:801880000000000000E0010000A8FD08000000000000000000000000000000000000000000000000000000000000000000000000000000000000000000000000000000000000000000800002000000000000000000000000000006C820000003400000000000000000000000000000008001000020FF000000000000000000000000000007
:801900000000000000000000000000000000000000000000000000000000000000000000000000000000000000000000800500000000000000000000008090000026C002000093002400000000000000000000000000008011010040FE000004220000000000000000000000000000000000000000000000000000000000000000680000D5
:80198000A00100000000000000000000000000000000002000350000D000000000000000200801801010820040880811000000000000000000000000000020490000F8FC000000000000000000000000000000000000000000000000000000000000000000000000600000800100000000000000000000000000000000000000300000C0C7
:801A000000000000000000000000000002000000000000000000000000000000000000000000000000C0F8000000000000000000000000000000000000000000000000000000000000000000000000600000800100000000000000000000000000000000008001300000C000000000000000008000000002000100000010000000000000C7
:801A8000000000000000000080010100C8F9080000120000000000000000000000000000000000000000000000000000000000000000600000800100000000000000000010000000000000000890300000C0000000000000000010000040000800000004000000000000000000000000000000800100009AF900000011000000000000008F
:801B0000000000000000000000000000000000000000000000000000000082000008020002000000000000000100000000000080048000000002000000000000000002002000480000080001000000000000000000000000000080010000F0FD00000C000000000000000000000000000000000000000000000000000000000000000000E3
:801B80001800006000000004000000000000100200000000000068010E400030000100000000006000008001B20000C0001A400000000000000000000000000000E0010200F8FB0400200000000000000000000000000000000000000000000000000000000000000000000000000000008004000000000000500200000000000088000268
:801C0000000000000000000000000000010000C0400000012000000000000000000000000000000080410000F1FA00002042000000000000000000000000000000000000000000000000000000000000000000000000000000040000000000000002000000000000800100000000000000000000000001000024C40400001361420000000A
:801C800000000000000000000000008001000008FA0000000000000000000000000000000000000000000000000000000000000000000000000000000000000004000000000000000200000000000000000000000000000000000000000000000000000000000000000000000000000000000000000000000000A0FB20000480001000020A
:801D000040000800012000048000100002400008000120000480001000024000080001200004000000000000000000000000000000002000048000100002400008000120000480001000024000080001200004800010000240000800012000040080F90000000000000000000000000000000000000000000000000000000000000000005E
:801D80000000000000000000000000000000000000000000000000000000000000000000000000000000000000000000000000000000000000000000000000000000000000000000E0F928000480001000024000080001200004800010000240000800012000048000100002400008000120000400000000000000000000000000000000E1
:801E0000200004800010000240000800012000048000100002400008000120000480001000024000080001200004002AFB00000000000000000000000000000000000000000000000000000000000000000000000000000000000000000000000000000000000000000000000100000000000000000000000000000000000000000000001B
:801E8000000000000000000000000000000000110000F0F9200004800010000240000800012000048000100002400008000120000480001000024000080001200004000000000000000000000000000000000000048000100002400008000120000480001000024000080001200004800010000240000800010000050080F8040000000069
:801F0000000000000000000000000000000000000000000000000000000000000000000000000000000000000000000000000000000000000000000000000000000000000000000000000000000000000000000000000000000000000000000000000000F1FC200004800010000240000800012000048000100002400008000120000480D2
:801F8000001000024000080001200004000000000000000000000000000000002000048000100002400008000120000480001000024000080001200004800010000240000800012000040080F900000000000000000000000000000000000000080000000000000000000000000000000000000000000000000000000000000000000000C0
:802000000000000000000000000000000000000000000000000000000000000000000000000000000000000000000000000060F9000000000000000000000000000000000000000000000000000000000000000000000000000000000000000000000000000000000000000000000000000000000000000000000000000000000000000007
:80208000000000000000000000000000000000000000000000E0F90000000000000000000000000000000000000000000000000000000000000000000000000000000000000000000000000000000000000000000000400000000000000000000000000000000000000000000000000000000000000000000000000000000000A0F902002C
:80210000000000000000000000000000000000000000000000000000000000000000000000000000000000000000000000000000000000000000000000000000000000000000000000000000000000040000100000000000000000000000000000000000000000B0FF0000000000000000000000000000000000000000000000000000009C
:802180000000000000000000000000000000000000000000000000000000000000000000000000000000000000000000000000000000000000000000000000000000000000000000000000000000E0F90000000000000000000000000000000000000000000000000000000000000000000000000000000000000000000000000000000006
:8022000000000000000000040000000000000000000000000000000000000000000000000000000000000000000000000000000000A0FD0000000000000000000000000000000000000000000000000000000000000000000000000000000000000000000000000000000000000000000000000000000000000000000000000000000000BD
:80228000000000080000000000000000000000000000000000000000E8F9000080000000000000000000000000000000000000000000000000000000000000000000000000000000000000000000000000000000000000000000000000000000000000000000040000800000000008000100000000000000000000000000000004000030B4
:80230000F9000000000000000000000000000000000000000000000000000000000000000000000000000000000000000000000000000000000000000000000000000000000000000000000000000000000080000000400000000000000000000000000000000000000020FD00000000000000000000000000000000000000000000000087
:802380000000000000000000000000000000000000000000000000000000000000000000000000000000000000000000000000000000000000000000001000000000000000000000000000000000000000F0F800000000000000000000000000000000000000000000000000000000000000000000000000000000000000000000000000E5
:802400000000000000000000000000000000000000000000000000000000008000000000000000000000000000000000000000000000000068F9000000000000000000000000000000000000000000000000000000000000000000000000000000000000000000000000000000000000000000000048000000000000000000000000100023
:8024800000400100000020000400000000000000000000000000000010000098FC0000200000000000000000000000000000000000000000000000000000000000000000000000000000000000000000000000000000000000000000020000000000000000000000004000000400000100020010000000000000000000000000000000005A
:80250000000080F9100000000000000000000000000000000000000000000000000000000000000000000000000000000000000000000000000000000000000000000000000000000000000000000000000000000008000000000000000000000000000000000000000000008070F8000000000000000000000000000000000000000000E2
:80258000000000000000000000000000000000000000000000200000000000000000000000000000000000000001000000000000000000000000000000000000000000000000000000000000000000000000000850FA000000000000000008000A000000000000000000000000000000400000000080000000000000000000000000000096
:802600000000000000000000000000000040000000000000000000000000000000000040000000001000000000000400000000000000084000012048FF000000000000000010000A00000000000000000000000000000020000000001000000000000000000000100000000000000000000000000000008000010501000000000000000035
:80268000000000000201800000000040000000008000000000000000000120400138F0FE000100000000001000000000080000000040040000000000000000000000000000100002400008000000000000000000000000000000000000004000100102410000000200000400C00200A00A00000040000008000000000000100002000000F8
:80270000008120205370FB000000000000000000000000000000000000000000000000000000000000000000000000000000000000000000000000000000000000000000000000200001820000000000000100400000000000000000000000000000000000000000000000008000000000FC00010000000000100000000008000000000061
:802780000000000000000000000000000000001000024000080000000000000000000000000000000000000000000000000000000002000000000000000004000000000200040000000000008000100000000008800800B0F900000000000000000000000000000000000000000000000000000000000000000000000000000000000000AA
:8028000000000000000000000000000000000000000000000000000000000000000000000000000000000000000000000000000000000000000000100000F0F900000000000000000000000000000000000000000000000000000000000000000000000000000000000000000000000000000000000000000000000000000000000000005F
:8028800000000000000000000000000000000000000000000000000000000000008000020068FB000000000000000000000000000000000000000000000000000000000000000000000000000000000000000000000000000000000000000000000000000000000000000000000000000000000000000000000000000000000000000000F3
:802900000000000000000000E0F90000000000000000000000000000000000000000000000000000000000000000000000000000000000000000000000000000000000000000000000000000000000000000000000008000000000000000000000000000000000000000000000000000000000E8F91000000000000000000000000000000D
:80298000000000000000000000000000000000000000000000000000000000000000000000000000000000000000004010020000000000000000000000000000000010000000000000000000000000000000000000000000008078FE000010000000000000000000000000000000000000000000000000000000000000000000000000006F
:802A00000000000000000000000000000000000000000000020000000000000000000080000000020000000001200000000000000000000000000000000000000040FA000000000000000000000000000000000000000000000000000000000000000000000000000000000000000000000000000000000000000000000020000000000057
:802A8000000000000000000000000000000000008000000000000000000000000000000000000000C8F900000000000000000000000000000000000000000000000000000000000000000000000000000000000000000000000000000000000000000000000000000000000000000000000000000004000000000000400000000000000051
:802B00000000000000000000000000E0F90000000000000000000000000000000000000000000000000000000000000000000000000000000000000000000000000000000000000000000000000000000000000000000000000000000000040000100000000000000000000000000000000000000000B0FD000000000000000000000000BB
:802B80000000000000000000000000000000000000000000000000000000000000000000000000000000000000000000000000000000000000000000000000000000000000010000040000000000000000000000000000000000080000B8FC0000000000000000000000000000000000000000000000000000000000000000000000000014
:802C0000000000000000000000000000000000000000000000000000000000000000000000000000010002000800C000000000000000000000000000000000000000000070FF00000000000000000000000000000000000000000000000000000000000000000000000000000000000000000000000000000000000000000000000000001A
:802C8000000000000000000000000000000000000000000000000000000000000000000000000000000000E0F9000000200000000000000000000000000000000000000000000000000000000000000000000000000000000000000000000000000000000000000000000000000000000000000000000000002000000000000000000000BB
:802D00000000000000000000000000000000C0F90000000000000000000000000000000000000000000000000000000000000000000000000000000000000000000000000000000000000000000000000000000000000000000000000000000800000000000800000000000000000000000000000000000000E0F9000000000000000000B1
:802D80000000000000000000000000000000000000000000000000000000000000000000000000000000000000000000000000000000000000000000000000000000000000000800010000050000000000000000000000000000000080000000E4F90000000000000000000000000000000000000000000000000000000000000000000068
:802E000000000000000000000000000000000000000000000000000000000000000000000000000000000100000000020000000400000000000000000000000000000000210000F0FF00000000000000000000000000000000000000000000000000000000000000000000000000000000000000000000000000000000000000000000003B
:802E8000000000000000000000000000008100000042000000000000000000000000000000000000000000000000C8FC0000000000000000000000000000000000000000000000000000000000000000000000000000000000000000000000000000000000000000000000000000000000000000000000000000000000000000000000004B
:802F00000000000000000000000000000000000000E0F90000000000000000000000000000000000000000000000000000000000000000000000000000000000000000000000000000000000000000000000000000000000000000000000000000000000000000000000000000000000000000000000000000400000A0F90000000000009F
:802F80000000000000000000000000000000000000000000000000000000000000000000000000000000000000000000000000000000000000000000000000000000000000000000000000000000004000000000000000000000000000000000000000A0FD00000000000000000000000000000000000000000000000000000000000000F4
:803000000000000000000000000000000000000000000000000000000000000080000000000000000000000000000000000100000000000100000000000000000000000000000000000060F9000000000000000000000000000000000000000000000000000000000000000000000000000000000000000000000000000000000000000075
:8030800000000000000000000000000000000000000000002000008000800000000000000000000000000000000000000060FB12000000000000000000000000000000000000000000000000000000000000000000000000000000000000000000000000000000000000000000000000000000000000000000000000000000000000000043
:80310000020000000000000000000000000000000000048078FC0000000000000000000000000000000000000000000000000000000000000000000000000000000000000000000000000000000000000000000000000000000000000000000000000000000000000040000000000000000000000000000000000000000000E0FD00000038
:80318000000000000000000000000000000000000000000000000000000000000000000000000000000000000000000000000000000000000000000000000000040000000000000108000800000000000000000002000000000000000002000000000000000078FD00000100000200000000400000000008200004000000000000000000D2
:803200000010000000000000000000000000000000000000000000000000000000008000108800004010000000000000010000000000000000000000008000000000000000000000000000010040FD020001000084010000060800000003042000040000000000000000000020000000000000000000000000000000000000000000000036
:803280000000000000202804A000028002000000000224400800028102500000000002000001000000000008000000000040018030FB0000200000800000000000000000000000000000000000000000000000000000000000001000004000000000000000000000000000000000000000008801022000000001600000202000068300005F
:80330000400042100808024000000000000000400000082080020428FE0000000000000000000000000000000000000000000000000000000000000000000000000000000000000000000000000000000000000000000000000080000000008000100000000000000100000000000000000820000000000000000000000000000000F8FA2A
:80338000000010000080000000000000000000000000000000000000000000000000000000000000000000000000000000000000000000000000000000000000000000000000000010000000400008000100000001010801000000000000000000000100020000000828FE00000000000000000000000000000000000000000000000000A8
:8034000000000000000000000000000000000000000000000000000000000000000000000000080000000000000000000000000000000000400000000400000000000000000000000000000000000000A8FD080000000000000000000000000000000000000000000000000000000000000000000000000000000000000000000000000053
:80348000000000000000000000000000000000000000000000000000000000000000400000000000000000000000000000000000800000ECFD0000000000000000000000000000000000000000000000000000000000000000000000000000000000000000000000000000000000000000000000040000000000000000000000000000001F
:803500002000020000000000000000000000000000000000000000080000A8FD000000000000000000000000000000000000000000000000000000000000000000000000000000000000000000000000000000000000000000000000000000000000000000000000000000000000000000000000000000000000000000000000000000007C
:8035800000E0F9080000000000000000000000000000000000000000000000000000000000000000000000000000000000000000000000000000000000000000000000000000000000000000000000000000000000000000000000000000000000000000000000000000000068F90000000000000000000000000000000000000000000089
:8036000000000000000000000000000000000000000000000000000000000000000000000000000000000000000000000000000000002000001000000000800008000400000000000000000000000000000000D0FE0000000000000000000000000000000000000000000000000000000000000000000000000000000000000000000000C0
:80368000000000000000000000000000000000000000000000000000000000000000000000000000000000000000000000000000000000000000E0F900000000000000000000000000000000000000000000000000000000000000000000000000000000000000000000000000000000000000000000000000200000800000000000000051
:80370000000000000000000000000000000000000000000000000000000000000068FB00000000000000000000000000000000000000000000000000000000000000000000000000000000000000000000000000000000000000000000000000000000000000000000000000000000000000000000000000000000000000000000000000E6
:8037800000200000C0F90000000000000000000000000000000000000000000000000000000000000000000000000000000000000000000000000000000000000000000000000000000000000000000000000000000000400000000000000000000000000000000000000000000000A0F90000000000000000000000000000000000000017
:8038000000000000000000000000000000000000000000000000000000000000000000000000000000000000010000000000000000000000000000000000000000000000000000000000000000000000000000000000F0F80000000000000000000000000000000000000000000000000000000000000000000000000020000080000000BF
:80388000000000000000000000000000000000000100000000000000000000000800000040300000000000000000000000000000000000000000000000D0FE00000000000000000000000000000000000000000000000000000000000000000000000000000000000000000000000000000000000000000000000000000000000000000081
:80390000000020108500000000024110080100000000800000480000000000000000000050FA00000000000000000000000000000000000000000000000000000000000000000000000000000000000000000000000000000000000000000000000000000000000000000000000000001000000001040002200000000000000200000000EB
:803980000000000000000090FA000000000000000000000000000000000000000000000000000000000000000000000000000000000000000000000000000000000000000000000000000000000000000000000000000000002000000000018000000000000031000000000000000000000048FB0000000000000000000000000000000028
:803A00000000000000000000000000000000000000000000000000000000000000000000000000000000000000000000000000000000000000000000908040001000400410000100000000001000000000000000000000000030FC000000000000000000000000000000000000000000000000000000000000000000000000000000000055
:803A80000000000000000000000000000000000000000000000000000000000000000088804000C0040109610004000000000000C0040100000000000000000010FD00000000000000000000000000000000000000000000000000000000000000000000000000000000000000000000000000000000000000000000000000000000000079
:803B0000000000000060000C0000E00006C0031810000000008005E8000000000000000000000058FE00000000000000000000000000000000000000000000000000000000000000000000000000000000000000000000000000000000000000000000000000000000000000000000000001000800C0000810034240000000000006D00009
:803B80000000000000000000000028FC00000000000000000000000000000000000000000000000000000000000000000000000000000000000000000000000000000000000000000000000000000000000000000000000009920000C0005800230002000000000006C1000000000000000000000010FA10000000000000000000000000E8
:803C000000000000000000000000000000000000000000000000000000010000000000000000000000000000000000000000000000000000000000000000208884000010020300080200000000008000000000000000000000000000A8FB0000000000000000000000000000000000000000000000000000000000000000000000000000D5
:803C80000000000000000000000000000C000000000000000600000000000000000000000000000010000000001000008000000000000000000000000000000000000050FC000000000000000000000000000000000000000000000000000000000000000000000000000000000000000000000000000008000000000000000400000000BA
:803D000000000000000000000000014000000000E000100000000000000000000000000000000000000060FE0C0000000000000000000000000000000000000000000000000000000000000000000000000000000000000000000000000000000000000000000000000000000000000000000000008000000002814000080000000000005D
:803D80001002000000000000000000000042FB14000000000000000000000000000000000000000000000000000000000000000000000000002C020000000000000000000000000000000000000000000000000000000000000000080008000002800823608000000000004600000000000000000000000028F9000000000000000000002E
:803E0000000000000000000000000000000000000000000000000000000000000F000000000000000000000000000000000000000000000000000000000000000060800C000030400680037100000000008001080000000000000000000000A8FE0800000000000000000000000000000000000000000000000000000000000000000000A6
:803E800000000000020000000000000000000000000000000000000000000000000000000000000000812010000000102003600000000000000008000000000000000000000029FF0000000000000000000000000000000000000000000000000000000000000000000000000000000000000000000000000000000000000000000000004C
:803F00000000000000000000000000000400000040221001036000000000000010000000000000000000000000B0FE00000000000000000000000000000000000000000000000000000000000000000000000000004D000000000000000000000000000000000000000000000000000000000000000020888480000022824821088100001A
:803F800000008010000000000000000000000000B0F80000000000000000000000000000000000000000000000000000000000000000000000000000081000000000000000000000000000000000000000000000000000000000000000000000100000000000000400000000000000020000000000000000000000C8FE0000000000000095
:80400000000000000000000000000000000000000000000000000000000000000000000C0000000000000000000000000000000000000000000000000000000000000000000001400020000000030000000000000000000000000000000000000000C8FC00000000000000000000000000000000000000000000000000000000000000000C
:804080000000000000004C010000000000000000000000000000000000000000000000000000000000000000008000001000801083008100000000001008000000000000000000000048FE00000000000000000000000000000000000000000000000000000000000000000000000000000C080000000000000000000000000000000000DD
:8041000000000000000000000000000000000008000016C1040120830001000000000010080000000000000000000000C8FB00000000000000000000000000000000000000000000000000000000000000000000000000000F000000000000000000000000000000000000000000000000000000000000000060800C9007E00006C0031889
:804180002000000000800100000000000000000000000010FD00000000000000000000000000000000000000000000000000000000000000000000000000000C02000000000000000000000000000000000000000000000000000000000000000001200000C100100083000000000000000001000000000000000000000080FB0000000012
:80420000000000000000000000000000000000000000000000000000000000000000000000000C00000000000000000000000000000000000000000000000000000000000000000008824020C000002103201400000000000200000000000000000000000000F9000000000000000000000000000000000000000000000000000000000035
:80428000000000000000000000010000000000000000000000000000000000000000000000000000000000000000201085808610008244210020000000000020120000000000000000000000D8FB00000000000000000000000000000000000000000000000000000000000000000000000000000C000000000000000000000000000000DA
:8043000000000000000000000000000000000000000000001004C000000000040000000000000000000000000000000000000030F900000000000000000000000000000000000000000000000000000000000000000000000000000C00000000000000000000000000000000000000000000000000000000000000000000004006210000C9
:8043800000031000000000000001000000000000000000000000C8FB08000000000000000000000000000000000000000000000000000000000000000000000000000C0100000000000000000000000000000000000000000000000000000000000000009080002610248002230C000000000080000000000000000000000000006AF900D3
:80440000000000000000000000000000000000000000000000000000000000000000000000000000002C02000000000000000000000000000000000000000000000000000000000000000088002216C4000009036080000000000006C8040100000000000000000020FF0000000000000000000000000000000000000000000000000000AC
:804480000000000000000000000000000F000000000000000000000000000000000000000000000000000000000000000060000C8007304006C0837000000000000007F0000000000000000000000030FC04000000000000000000000000000000000000000000000000000000000000000000000000000C0000000000000000000000005E
:8045000000000000000000000000000000000000000000000001211006C0000800836000000000000006C00000000000000000000000C9FC00000000000000000000000000000000000000000000000000000000000000000000000000008C0400000000000000000000000000000000000000000000000000000000000000000500002612
:80458000C4229808236000000000000006C0000000000000000000000000FA100000000000000000000000000000000000000000400804000000000000000000000000000021000000000000000000000000000000000000000000000000000000000000000020103580001000824800080100A0010080000000000000000000000000008C
:80460000C4FA0000000000000000000000000000000000000000000000000000000000000000000000000000001000000000000000000000000000000000000000000000000000000000000000000020080600000000030020008001000000000000000000000000000000D0FD0000000000000000000000000000000000000000000000CD
:804680000000000000000000000000000000000008000000000000000000000000000000000000000000000000000000000000000000300006F000000000018000800100000000000000000000000000000070FA0C0000000000000000000000000000000000000000004000000000000000000000000000000000000000000000000000D4
:8047000000000000000000000000000000000000000000000000000090300886C0008010230001008001000000000000000000000000000000DBF8140000000000000000000000000000000000000000000800000000000000000000000000000020100000000000000000000000000000000000000000000000000000000000000000884F
:80478000B00016C10400200B0400000000000040000000000000000000000000A9F9000000000000000000000000000000000000000000C00001000000000000000000000000000003000000000000000000000000000000000000000000000000000000000000000060003C8807F02006C00318400060800080010200000000000000009A
:80480000000000BCF8080000000000000000000000000000000000000000000002000000000000000000000000000000000000000000000000000000000000000000000000000000000000000000000000813020060000100003400000000000000600000000000000000000000042FB00000000000000000000000000000000000000000D
:804880000000110000000000000000000000000000002804000000000000000000000000000000000000000000000000000000000000000005B0004602440089080181000000000046010000000000000000000000C8F800000000000000000000000000000000000000000040080000000000000000000000000000004002000000000096
:804900000000000000000000000000000000000000000000000000000000200000114010024360200900000000000020180000000000000000000000D0FB00000000000000000000000000000000000000000000000100000000000000000000000000000000000000000000000000000000000000000000000000000000000000000000E4
:804980000000400000000400000000600000000000000000000000000000000000000090FA0000000000000000000000000000000000000000000000020000000000000000000000000000020000000000000000000000000000000000000000000000000000000000000000000008000100000010021000000000008001000000000000D9
:804A000000000000000048FA0800000000000000000000000000000000000000000020000000000000000000000000000000010000000000000000000000000000000000000000000000000000000000000000004004800000028100100A1000000000800000000000000000000000000062FC00000000000000000000000000000000007C
:804A80000000000000080400000000000000000000000000004C10000000000000000000000000000000000000000000000000000000000000000008314106080240000A6004000000000006C8200000000000000000000090FC000000000000000000000000000000000000000000C0000000000000000000000000000000000E000000CE
:804B000000000000000000000000000000000000000000000000000000000000006000380007304006C8011A20000000000007F0000000000000000000000060FE04000000000000000000000000000000000000000000000000000000000000000000000000000D00000000000000000000000000000000000000000000000000000000B7
:804B80000000000080003080060080001002600000000000800600000000000000000000000001F900000000000000000000000000000000000000000000510000000000000000000000000000000C000000000000000000000000000000000000000000000000000000000000000080893000064000080001621400000000000600140098
:804C000000000000000000000070F900000000000000000000000000000000000000000040080000000000000000000000000000004C08000000000000000000000000000000000000000000000000000000000000002048048010D0080240086800000000000000120000000000000000000000C8FB0000000000000000000000000000D4
:804C80000000000000000000000100000000000000000000000000000C0000000000000000000000000000000000000000000000000000000000000000000000000088200010004110000000000000C0000000000000000000000010F900000000000000000000000000000000000000000000000200000000000000000000000000000EC5
:804D000000000000000000000000000000000000000000000000000000000000000000000000000000C1000708006400000000008001C0000100000000000000000018FC08000000000000000000000000000000000000000000100000000000000000000000000000000D0000000000000000000000000000000000000000000000000084
:804D8000000000000000000028000020C0040001086022000000008000C00400000000000000000000C2FF00000000000000000000000000000000000000000000080400000000000000000000000000000C00000000000000000000000000000000000000000000000000000000000000000008012110C80440008B6012000000000006B6
:804E0000C8040000000000000000000088FD000000000000000000000000000000000000000000C0000000000000000000000000000000000E000000000000000000000000000000000000000000000000000000000000000060000C8001F0000FD0007800000000000007F0400000000000000000000050FC040000000000000000000058
:804E80000000000000000000000000000100000000000000000000000000000C00000000000000000000000000000000000000000000000000000000000000008000300800C0001020026100000000000006C0200000000000000000000079FA00000000000000000000000000000000000000000000010000000000000000000000000040
:804F000000000C00000000000000000000000000000000000000000000000000000000000000008001B20014C2149000216011000000000006C0040000000000000000000080F9000000000000000000000000000000000000000000408B0000000000000000000000000000002100000000000000000000000000000000000000000000B7
:804F800000000000000000000000200400012610021A4010080000000000800200880000000000000000000030F90000000000000000000000000000000000000000000002000000000000000000000000000000001000000000000000000000000000000000000000000000000000000000000000004000080604401004000100000000F6
:8050000000000004000000000000000000000088FE000000000000000000000000000000000000000000000302000000000000000000000000000000020000000000000000000000000000000000000000000000000000000000000000000C00070000190800780000000000000620000000000000000000000090F9000000000000000044
:8050800000000000000000000000000000000B000000000000000000000000000000000000000000000000000000100000000000000008000000000000000000000000005004800600025800506000000000000046110000000000000000000000F8FE00000000000000000000000000000000000000000000A300000000000000000000B9
:805100000000000000201000000002000000000000000100000000000000000000000000000000000000000831410600005804616011000000000016C00401000000000000000000A8F9000000000000000000000000000000000000000000C0030000000000000000000000000000000300000000040000000000001002000000000000F6
:8051800008000000000000000000000000600038000730201EC0037800000000008007E10000000000000000000000E8FD000000000000000000000000000000000000000000000300000000000000000000000000000000000000800400000000000050020000000000000800000000000000000000000080003000068080180003000060
:80520000000000000006C00000000000000000000000C8FC000000000000000000000000000000000000000000000B040000000000000000000000000000280400000004000000000000000200000000000000000000000000000000000000808930000600041805130120000000000026C1000000000000000000000060F900000000008F
:80528000000000000000000000000000000000000000000000000000000000000000000000800000000004000000000000000200000000000000000000000000000000000000000000001000000000000000000000000020000800000000000000000000FCFC20000480001000024000080001200004800010000240000800012000048056
:805300000010000240000800012200040000000000000000000000000000000020000480001000024000080001200004800011000240000800012000048000128002400008000120000400B8F90000000000000000000000000000000000000000000000000000000000000000000000000000000000000000000000000000000000000057
:8053800000000000000000000000000000000000000000000000000000000000000000000000000000000000000000000000E0F92800048000100002400008000120000480001000024000080001200004800010000240000800012000040000000000000000000000000000000020000480001000024000080001200004800010000240B6
:8054000000080001200004000010000240000800012000040033FA0000000000000000000000000000000000000000000000000000000000000000000000000000480000000000000000000000000000000000000000000000000000000000000000000020022481081000024404000000000044802200000000000000000000F9F92000EA
:8054800004800010000240000800012000048000100002400008000120000480001000024000080000220004000000000000000000000000000000002000048000100002400008000120000020000080000000004001200004000004000240000800012000040002FF0400000000000000000000000000000000000000000000000000000E
:805500000000000000000000000000000000000000000000000000000000000000000000000000000000000000000000000000000000000000000000000000000000000000000000000000000000C2FF2000048000100002400008000120000480001000024000080001200004800010000240000800012000040000000000000000000049
:8055800000000000000020000480001000024000080001200004800010000240000800012000048000100002400008000120000400A2FB0000000000000000000000000000000000000000000000000000000000000000000000000000000000000000000000000000000000000000000000000000000000000000000000000000000000ED
:80560000000000400000000000000000000000000000000000000000A0F90000000000000000000000000000000000000000000000000000000000000000000000000000000000000000000000000000000000000000000000000000000000000000000000000000000000000000000000000000000000000000000000000000000000E071
:80568000F9000000000000000000000000000000000000000000000000000000000000000000000000000000000000000000000000000000000000000000000000000000000000000000000000080000000000100000000000000000000000000000000000000000000078F800000000000000000000000000000000000000000000000029
:805700000000000000000000000000000000000000000000000000000000000000000000000000000000000000000000000000000000000000000000000000000000000000000000000000000000000000E0F90000000000000000000000000000000000000000000000000000000000000000000000000000000000000000000000000050
:8057800000000000000000000000000000000000000000000000000000000000000000000000000000000000000000000000000000000000E0F90000000000000000000000000000000000000000000000000000000000000000000000000000000000000000000000000000000000000000000000000000000000000000000000000000D0
:80580000000000000000000000000000000000000000000000000000000000E0F90000000000000000000000000000000000000000000000000000000000000000000000000000000000000000000000000000000000000000000000000000000000000000000000000000000000000000000000000000000000000000000000000000004F
:805880000000E0F90000000000000000000000000000000000000000000000000000000000000000000000000000000000000000000000000000000000000000000000000000000000000000000000000400000000000002000000000000000000000000000000000000000000C0FD0000000000000000000000000000000000000000000C
:805900000000000000000000000000000000000000000000000000000000000000000000000000000000000000000000000000000000800000000000000000000000000000000000000000000000000000000080E8F900000000000000000000000000000000000000000080000000000000000000000000000000000000000000000000C6
:8059800000000000000000000000000000000000000000000000000000000010000000000000000000000000000002000000000000000000000000C8F80000000000000000000000000000000000000000000000000000000000000000000000000000000000000000000000000000000000000000000000000000000000000000000000D5
:805A0000000000000000000000000000000000000000000000000000000000000000E0F91000000000000000000000000000000000000000000000000000000000000000000000000000000000000000000000000000000000000000000000000000000000000000000000000000000000000000000000000000000000020000000000003B
:805A80000000000000D0FA120000000000000000000000000000000000000000000000000000000000000000000000000000000000000000000000000000000000000000000000000000000000000000000000010000000000000400000000000000000000000000000000000000008038FB12000000000000000000000000000000000000
:805B0000000000000000000000000000000000000000000001000000000000000000000000000000000000000000000000000000000000000000000000000000400000000000000000000020000000000000000000008008FF0000000000000000000000000000000000000000000000000000000000000004000000000000000000000039
:805B800000000000000000000000000000000000000000000200000000000000000000000000000000000000000000000000000000000000000000000000A0FB000000000000000000000000000000000000000000000000000000000100008000040000000000000000000000000000000000000000000000000000000001000000000082
:805C0000000000000000800000000000000000000000000000000000000000000004000100A8FD00000000000000300000000000000000000000000000000000000000010000120002000040011800000000000000000000000000000000000000000000800002000000000000000000008000000000000100000000000000A000000000B9
:805C8000000000000800010088FD00000000000000000000000000000000000000000000000000000000000000000000000040010000000000000000000000000000000000000000004000008081000000000000080040000004000024004000000001000000A2C00000004100000000202000F0FE00000000000000000000000000000012
:805D00000000000000000000000000000000000000000000000000000000000000000000000000000000000000000000200000000200000000000000002000000000000000000000000000008000100000400000000000000000B8F90000000000000000000000000000000000000000000000000000000000000000000000004000000020
:805D800000000000000000000000000000000000000000000000008200000000000008000000000200000000800000000100000000440000000001000000800800B0F8000000000000000000000000000000000000000000000800000000000000000000000000000000000000000000000000000000000000000000000000000000000019
:805E000000000000000000000000000002400000040100000000000000000000000000000000000010FB000000000000000000000000000000000000000000000000000000000000000000000000000000000000000000000000000000000000000000000000000000000000000000000000000000000000000000000000000000000000D0
:805E80000000000000000000000000E0F90000000000000000000000000000000000000000000000000000000000000000000000000000000000000000000000000000000000000000000000000000000000000000000000000000000000000000000000000000000000000000000000000000000000E0F9020000000000000000000000EE
:805F0000000000000000000000000000000000000000000000000000000000000000000000000000000000000000000000000000000000000000000000000000000000000000000000000000000000008004000000000000000000000028FF0000000000000000000000000000000000000000000000000000000000000000000000000076
:805F80000000080000000000000000000000000000000000000000000000000000000000000000000000000000000000000000000000000000000000000000000000000068F9000000000000000000000000000000000000000000000000000000000000000000000000000000000000000000000000000000000000000000000000000038
:80600000000000000000000000800002000000000800000000000000000000000000000000000000000000C8F9000000000000000000000000000000000000000000000000000000000000000000000000000000000000000000000000000000000000000000000000000000000000000000000000000000000000000000000000000000D5
:806080000000000000000000000000000000E0F90000000000000000000000000000000000000000000000000000000000000000000000000000000000000000000000000000000000000000000000000000000000000000000000000000000000000000000000000000000000000000000000000000000000E0F9000000000000000000EE
:806100000000000000000000000000000000000000000000000000000000000000000000000000000000000000000000000000000000000000000000000000000000000000000000000000000000000000000000000000000000000000000000E0F90000000000000000000000000000000000000000000000000000000000000000000046
:806180000000000000000000000000000000000000000000000000000000000000000000000000000000020000000000208040000000000000000800000000000000000000000088F900000000000000000000000000000000000000000000000000000000000000000000000000000800000000000000000000000000000000000000002C
:8062000000000000000000000000000000000000040000000000000000000000000080000000000000000000000068FD000000000000000000000000000000000000000000401000000000000000000000000000000000000000000000000000000000000000000000000000000000000000000000000000080800000000040900000000C8
:80628000000000000000000000000000000000000038F80000000000000000000000000000000000000000000000000000000000000000000000000000000000000000000000000000000000000000000000000000000000000000000000000000004000000000100000000000000001000000000000000000000000A0FD00000000000080
:80630000000000000000000000000000000000000202000000000000000000000000000008000000000000000000000000000000000000000000000000000000000000000000002000048000104002400800000000000400400000000000000000000090FA0000000000000000000000000000000000000000000000000000000000000005
:8063800000000000000000000000000000000000000000000000000000000000000000000000000000000000000000010001000000000010000000000000010000000000000000000000F0F80000000000000000000000000000000000000000000000000000000000000000000000000000000000000000000000000000000000000000A2
:80640000000000000000000000000000000000000040000000000000000000000000000000080000000000000000000000E8FD0000000000000000000000000000000000000000000010010000000000000000000000000000000400000000000000000000000000000000000000000000000000000000000000000000100002C0080820D8
:80648000012000000000000002000000000000000000000008FC0000000000000000000000000000000000000000000000000000000000000000000000000000000000000000000000000000000000000000000000000000000000000000000000000000000010000000100000000000000000000000000000000000000000F0F80000006D
:80650000000000000000000000000000000000000000000000000000000000000000000000000020000000000000000000000000000000000000000000000000000000000000000000000000000000000000000000000000000808000000000000000000000048F900000000000000000000000000000000000000000000000000000000AA
:806580000000000000000000000000000000000000000000000000000000000000000000000000000000000000000000000080000000000000000000000000000010000000000000000000000070F90000000000000000000000000000000000000000000000000000000000000000000000000000000000000000000000000000000000A2
:80660000000000000000000000000000000000000000000000002000000000000000000000000000002000000000000000000000E0F900000000000000000000000000000000000000000000000000000000000000000000000000000000000000000000000000000000000000000000000000000000000000000000000000000080000081
:806680000000000000000000000000000000000000000000000000E8F90000000000000000000000000000000000000000000000000000000000000000000000000000000000000000000000000000000000000000000000000000000000000000000000000000000000000010000000000000000000000000000000000000000000E0F8D1
:806700000000000000000000000000000000000000000000000000000000000000000000000000000000000000000000000000000000000000000000000000000000000000000000000000000000010000000000000000000000000000000000000000000000000000F0F80000000000000000000000000000000000000000000000000030
:806780000000000000000000000000000000000000000000000000000000000000000000000000000000000000020040000200002000800000000000000000008000040000000000000000000100000010FD02000000000000000000000000000000040000000000000000000000000000000000800000000002010000000000000000009A
:80680000000000000000000000800000000400100000000002804010000244200800002000040840000000000002000001000000002080D0FE000000000000000000000000000000002000000080020000000000000000000000004000000040290000000000000000000000000000000000000000010000040002080010000320000D804D
:8068800000168002000A0800010883011000801602000002000004000400C0FA000000000480000000000000000000000000000080000200000000000000000000000000C0000000000000000000000000000000000000000000000000000200000000024000044008050004C0901800080000200040000004801D10000000000C000120E8
:806900000018F80200000000000000000000000000000000000000000000000000000000000000000000000000000000000000000000000000000000000000000000000080000000000000000001000000000040000400000000000020000000000000000000000100000080F0F800000080008000000000000000000000000000000000B7
:806980000100000000000000000000000000200000000000000000000000000000000000000000000000000000000000800010000000000000042020020000000000000000000240200200000000080001080010FC00000000000000000000000000000000000000000000000000000000000000000000000000000100000000000000001E
:806A000000000000000000000000000000000000000000000000000000000080000000000000000000000000000400000000000000000000000030F80000000000000000000000000000000000000000000000000000000000000000000000000000200000000000000000000000000000000000000000000000000000000000000000004A
:806A80000080000000030000000000000000000000000000000000000000000080F0FA0000000000000000000000000000000000000000000000000000000000000000000000000000000000000000000000000000000000000000000000000000000000000000000000000002000000008000000000000000000000000000000000000027
:806B000000000000C8F90000000000000000000000000000000000000000000000000000000000000000000000000000000000000000000000000000000000000000000000000000000000000000000000200000000000000100000080000000000000000000000000000000000080C0F8000000000000000000000000000000000000007B
:806B80000000000000000000000000000000000000000000000000000000000000000000000000000000000000000000000000000000000000000000000020000004100000000000000000000000000000000000000090FC0000000000000000000000000000000000000000000000000000000000000000000000000000000400000000D1
:806C0000000000000000000000000000000000000000000000000000000000000000100000400200000000000000000000000000000000000000000000B0FF00000000000000000000000000000000000000000000000000000000000000000000000000000000000000000000000000000000000000000000000000000000000000000013
:806C8000000000000000800000008002020000000000000000000000000000000000000040F90000000000000000000000000000000000000000000000000000000000000000000000000000000000000000000000000000000000000000000000000000000000000000000000000000000000000000240000000000000000000200000031
:806D00000000000000000080FF000000000000000000000000000000000000000000000000000000000000000000000000000000000000000000000000000000000000000000000000000000000000000000000000000004000010000080000800000000008000100000000000000000000028FC0000000000000000000000000000000044
:806D800000000000000000000000000000000000000000000000000000000000000000000000000000000000000000000000000000000000000000000000000000000000010000000002000000000000000000000000000000D0F8000000000000000000000000000000000000000000400000000000000000000000000000000000000088
:806E0000000000000000000000000000000000000000000000000000000000000000000000000000000040008000000000000000000000000000000000000000A8F900000000000000000000000000000000000000000000000000000000000000000000000000004008000000000000000000000000000000000000000000000000000069
:806E80000000000000000000200004800000008040000000000000000000000000000000000000C0FD0000000000000000000000000000000000000000000000000000000000000000000000000000000000000000000000000000000000000000000000000000000000000000000000000000000000000000000000000000000000000071
:806F000000000000000000000000E0F90000000000000000000000000000000000000000000000000000000000000000000000000000000000000000000000000000000000000000000000000000000000000000000000000000000000000000000000000000000000000000000000000000000000E0F9000000000000000000000000005F
:806F800000000000000000000000000000000000000000000000000000000000000000000000000000000000000000000000000000000000000000000000000000000000000000000000000000000000000000000000000000000000E0F90000000000000000000000000000000000000000000000000000000000000000000000000000B8
:80700000000000000000000000000000000000000000000000000000000000000000000000000000000000000000000000000000000000000000000000000000000000E0F900000000000000000000000000000000000000000000000000000000000000000000000000000000000000000000000000000000000000000000000000000037
:807080000000000000000000000000000000000000000000000000000000000000000000000000000000E0F900000000000000000000000000000000000000000000000000000000000000000000000000000000000000000000000000000000000000000000000000000000000000000000000000000000000000000000000000000000B7
:8071000000000000000000000000000000E0F90000000000000000000000000000000000000000000000000000000000000000000000000000000000000000000000000000000000000000000000000000000000000000000000000000000000000000000000000000000000000000000000000000000000E0F9000000000000000000005D
:8071800000000000000000000000000000000000000000000000000000000000000000000000000000000000000000000000000000000000000000000000000000000000000000000000000000000000000000000000000000000000000000E0F90000000000000000000000000000000000000000000000000000000000000000000000B6
:80720000000000000000000000000000000000000000000000000000000000000000000000000000000000000000000040000000000000000000000000000000000000000000E0FD00000000000000000000000000000000000000000000000000000000000000000000000000000000000000000000000000000C000000000000000600DF
:807280000000000000000000000000000000000000000000000000000000000000000000000000000000000000C8FD00000000000000000000000000000000000000000000000000000000000000000000000000000000000000000000000000000800000000000000040000000000000000000000000000000000000000000000000000BD
:8073000000000000000000000000000000000000A8F908000000000000000000000000000000000000000000000000000000000000000000000000000000000000000000000000000000000000000000000000000000000000000000000000000000000000000000000000000000000000000000000000000000004AFB000000000000001F
:807380000000000000000000000000000000000000000000000000000000000000000000000000000000000000000000000000000000000000000000000000000000000000000000000000000043000000000000000000000000000000000000000090FA0000000000000000000000000000000000000000000000000000000000000000C0
:807400000000000000000000000000000000000000000000000000000000000000000000000000000000000000000000000000C003000000000000000000000000000000000000000058FE040000000000000000000000000000000000000000000000000000000000000000000000000000000000000000000000000000000000000000EF
:807480000000000000000000000000000000000000000000000000030000000000000000000000000000000000000000C1FF00000000000000000000000000000000000000000000000000000000000000000000000000000000000000000000000000000000000000000000000000000000000000000000000000000000000000000300C6
:8075000000000000000000000000000000000000000000D0FA1000000000000000000000000000000000000000000000000000000000000000000000000000000000000000000000000000000000000000000000000000000000000000000000000000000000000000000000000000000000000000000000000000000000F0F80000000049
:8075800000000000000000000000000000000000000000000000000000000000000000000000000000000000000000000000000000000000000000000000000000000000000000000000000000000000000000000000000000000000000000000000000000E0F90000000000000000000000000000000000000000000000000000000000B2
:80760000000000000000000000000000000000000000000000000000000000000000000000000000000000000000000000000000000000000000000000000000000000000000000000000000E0F90C000000000000000000000000000000000000000000000000000000000000000000000000000000000000000000000000000000000025
:8076800000000000000000000000000000000000000000000000000000000000000000000000000000000000000000000000004AFF140000000000000000000000000000000000000000000000000000000000000000000000000000000000000000000000000000000000000000000000000000000000000000000000000000000000002D
