:020000040000FA
:67000000FFFF62FF3F00FFFFFFFFFFFFFFFFFFFFFFFFFFFFFFFFFFFFFFFFFFFFFFFFFFFFFFFFFFFFFFFFFFFFFFFFFFFFFFFFFFFFFFFFFFFFFFFFFFFFFFFFFFFFFFFFFFFFFFFFFFFFFFFFFFFFFFFFFFFFFFFFFFFFFFFFFFFFFFFFFFFFFFFFFFFFFFFFFFFFFFFFFFFFFFFFFF5C
:67006700A00C9401300006CA0018000365000C9001320006C8041800036000CC94A93260A6CA4019280366A00C9401000000000000000000000000000000000C9401335006C08019000365A00C80013003A6C00C98010360000C8019300566C00C9802336006CC8029A8FA10
:6700CE000015A0024800095001248004A80012E0025C0009F00324800490002AA00554801650012A4005A80015A0020000000000000000000000000000000012A00254800A20012A8004A800154002A80015A0025480049000124005A80015A00254800A50012A400530FF1C
:67013500000480000000004000000000200000000000000000000000000000000000000000000000000000000000000000000000000000000000000000000000000000000000000000000000020000000008000020000000000000004000000001000004000010000068FC9C
:67019C00000000000000000000000000000000000000000000000000000000004000080008000004000020000080000000000000000000000000000000000000000010000000000800000000000000000000000000000000000000000000000000000000000000000010F9E7
:670203000005A000000000540000000028000020000400001402000000000038A00714801770000AD00108400720000000000000000000000000000000000000E00004A00300000201003800010000E000108043400000000000000780001C800270000AC00128000718FE9A
:67026A0000052000000000400000000008000020000400000800000000002008240180C000100040000000010440000000000000000000004000000000000000200014000000000800000800020000024004001000000000000000A120400482001108004120080008F0FD98
:6702D100000000000000000000000000000000000000000000000000000000000000000000000000000000000000000000000000000000000000000000000000000000000000000000000110001411000000000000000000A03000000000000000000000000000000088F840
:670338000000000000000000000000000000000000000000000000000000000000000000000000000000000000000000000000000000000000000000000000000000000000000000000000000000000000000000000000000000000000000000000000000000000000E0F985
:67039F00000000000000000000000000000000000000000000000000000000000000000000000000000000000000000000000000000000000000000000000000000000000000000000000C00001C00000000000000000000008000000000000000000000000000000068F8EF
:670406000000000000000000000000000000000000000000000000000000000000000000000000000000000000000000000000000000000000000000000000000000000000000000000020100004090000000000000000000010000000000000000000000000000000A8FB9F
:67046D000000000000000000000000000000000000000000000000000000000000000000000000000000000000000000000000000000000000000000000000000000000000000000000084000010410000000000000000000008010000000000000000000000000000E8F86A
:6704D400000000000000000000000000000000000000000000000000000000000000000000000000000000000000000000000000000000000000000000000000000000000000000000000B10000C000000000000000000006000000000000000000000000000000000E0FF5B
:67053B00000000000000000000000000000000000000000000000000000000000000000000000000000000000000000000000000000000000000000000000000000000000000000000000410000008000000000000000000000102000000000000000000000000000088FBB7
:6705A200000000000000000000000000000000000000000000000000000000000000000000000000000000000000000000000000000000000000000000000000000000000000000000002C00002001000000000000000000800000000000000000000000000000000038F8F5
:6706090010000000000000000000000000000000800000000000000000000000000000000000000000000000000000000000000000000000000000000000000000000000000000000000000000140900000000000000000DA00100800000000000000000000000000048FF68
:6706700000000000000000000000000000000000000000000000000000000000000000000000000000000000000000000000000000000000000000000000000000000000000000000000000000000000000000000000000C0040000000000000000000000000000000A8F936
:6706D700000000000000000000000000000000000000000000000000000000000000000000000000000000000000000000000000000000000000000000000000000000000000000000000000002C1000000000000000000C080001000600000000000000000000000080FEE7
:67073E000C000000000000000000000000000000000000000000000000000000000000000000000000000000000000000000000000000000000000000000000000000000000000000000000000040200000000000000008000040000060000000000000000000000008AFD31
:6707A50004000000000000000000000000000000000604000000000000000000000000000000000000000000000000000000000000000000000000000000000000000000000000000000000000000800000000000000002C800800002002000000000000000000000048FBBE
:67080C00080000000000000000000000000000008007000000000000000000000000000000000000000000000000000000000000000000000000000000000000000000000000000000000000000C0000000000000000000F6801028001000000000000000000000000E8FD0A
:6708730008000000000000000000000000000000000600000000000000000000000000000000000000000000000000000000000000000000000000000000000000000000000000000000000000000000000000000000000C8800010000000000000000000000000000C1FBBF
:6708DA0010000000000000000000000000000000000600000000000000000000000000000000000000000000000000000000000000000000000000000000000000000000000000000000000000300800000000000000000C00110000A000000000000000000000000048FA6A
:6709410000000000000000000000000000000000000000000000000000000000000000000000000000000000000000000000000000000000000000000000000000000000000000000000000000340A000000000000000000A01000800000000200000000000000000088FB5C
:6709A8000000000000000000000000000000000000000000000000000000000000000000000000000000000000000000000000000000000000000000000000000000000000000000000000000030000000000000000000000040000000000000000000000000000000E0FE9A
:670A0F00000000000000000000000000000000000000000000000000000000000000000000000000000000000000000000000000000000000000000000000000000000000000000000000000002000000000000000000000808000000600000000000000000000000000FB5F
:670A7600080000000000000000000000000000000000000000000000000000000000000000000000000000000000000000000000000000000000000000000000000000000000000000000000003009000000000000000000001000000600000000000000000000000032F898
:670ADD00000000000000000000000000000000000000000000000000000000000000000000000000000000000000000000000000000000000000000000000000000000000000000000000000003041000000000000000000000800002000000021000000000000000000F800
:670B4400000000000000000000000000000000000000000000000000000000000000000000000000000000000000000000000000000000000000000000000000000000000000000000000000003C00000000000000000000608000800102000600000000000000000090FE17
:670BAB00040000000000000000000000000000000000000000000000000000000000000000000000000000000000000000000000000000000000000000000000000000000000000000000000003000000000000000000000800000000000001800000000000000000079FEA0
:670C1200000000000000000000000000000000000000000000000000000000000000000000000000000000000000000000000000000000000000000000000000000000000000000000000000003008000000000000000000001002000001001802000000000000000078FBA3
:670C79000000000000000002000000000000000000000000000000000000000000000000000000000000000000000000000000000000000000000000000000000000001080004080000000000004000000000000000000002030000000100000000000000000000000E0FD81
:670CE0000000000000000000000000000000000000000000000000000000000000000000000000000000000000000000000000000000000000000000000000000000000000000000000000000000000000000000000000000000000000000000000000000000000000E0F9D4
:670D4700000000000000000000000000000000000000000000000000000000000000000000000000000000000000000000000000000000000000000000000000000000B000000083000000000000000000000000000000000000020000F08000000000000000000000B8F8F0
:670DAE00080000000000000000000000000000000000000000000000000000000000000000000000000000000000000000000000000000000000000000000000000000D084000020000000000000080000000000000000008000000000100200000000000000000000CAFE00
:670E15000000000000000018200000000000000000000000000000000000000000000000000000000000000000000000000000000000000000000000000000000000000002000021000000000000410000000000000000000008000000C0200000000000000000000040F9B9
:670E7C00000000000000001E00000000000000000000000000000000000000000000000000000000000000000000000000000000000000000000000000000000000000A04000C00204000000000C000000000000000000006001020000F0000000000000000000000060FA92
:670EE300040000000000001800000000000000000000000000000000000000000000000000000000000000000000000000000000000000000000000000000000000000C000000001000000000000000000000000000000000000010000C00000000000000000000000F9F819
:670F4A00000000000000001800000000000000000000000000000000000000000000000000000000000000000000000000000000000000000000000000000000000000C028000013010000000030090000000000000000000010000000C0420000000000000000000010FBD6
:670FB100100000000000000000000000000000000000000000000000000000000000000000000000000000000000000000000000000000000000000000000000000000000002400002000000000400000000000000000000A00900801001000000000000000000044014FAF5
:671018000000000000000000000000000000000000000000000000000000000000000000000000000000000000000000000000000000000000000000000000000000000000000000000000000000000000000000000000000040000004000000000000000000000000A0FD90
:67107F00000000000000000000000000000000000000000000000000000000000000000000000000000000000000000000000000000000000000000000000000000000000018C002040000000000000000000000000000008001000000010000000000000000001000C8F9D9
:6710E6000C0000000000000000000000000000000000000000000000000000000000000000000000000000000000000000000000000000000000000000000000000000000040482300000000000000000000000000000000004400002600000000000000000000A040EBF8BF
:67114D00040000000000000000000000000000000000000000000000000000000000000000000000000000000000000000000000000000000000000000000000000000000080100800000000000041000000000000000000000800002002000000000000000000000231FC05
:6711B40008000000000000000000000000000000000000000000000000000000000000000000000000000000000000000000000000000000000000000000000000000000001E800201000000000C00000000000000000000E081008001000000000000000000003C409AF92E
:67121B00080000000000000000000000000000000000000000000000000000000000000000000000000000000000000000000000000000000000000000000000000000000000008300000000003000000000000000000000808000000601000000000000000000104056F80C
:67128200100000000000000000000000000000000000000000000000000000000000000000000000000000000000000000000000000000000000000000000000000000000018202300000000003009000000000000000000801100000000000000000000000000B000C0F868
:6712E90000000000000000000000000000000000000000000000000000000000000000000000000000000000000000000000000000000000000000000000000000800000000040000000000000340A00D0000000000000002011008080D00000000000000020000000ECFCC7
:6713500000000000000000000000000000000000000000000000000000000000000000000000000000000000000000000000000000000000000000000000000000000000000000000000000000200000C000000000000000000002000400000000000000000000000008FD4B
:6713B70000000000000000000000000000000000000000000000000000000000000000000000000000000000000000000000000000000000000000000000000000000000000000030000000000200000C0000000000000000041000000C8800000000000008001000010FAD8
:67141E0008000000000000000000000000000000000000000000000000000000000000000000000000000000000000000000000000000000000000000000000000000000000000100200000000300800C0000000000000008010000000C00800000000000080910000B3FE3B
:67148500000000000000000000000000000000000000000000000000000000000000000000000000000000000000000000000000000000000000000000000000000046000000000B040000000000410000080000000000000020000020C0020000000000000090000029F9AE
:6714EC00000000000000000000000000000000000000000000000000000000000000000000000000000000000000000000000000000000000000000000000000008007040000C00300000000000C000030400000000000006000008001F280000000000000E0010000FAFCA5
:671553000400000000000000000000000000000000000000000000000000000000000000000000000000000000000000000000000000000000000000000000000000000000000083000000000000000000000000000000000041000000C080000000000000800102003AF874
:6715BA000000000000000000000000000000000000000000000000000000000000000000000000000000000000000000000000000000000000000000000000000000A00000000003000000000020090000000000000000008008000042C80000000000000080050000F2F9FC
:67162100100000800000000000000000000000000000000000000000000000000000000000000000000000000000000000000000000000000000000000000000000000000000400900000000001401000000000000000000201000804000000000000000000000000050FB39
:671688000000000000000000000000000000000000000000000000000000000000000000000000000000000000000000000000000000000000000000000000000000000000000000040000000000080000000000000000000001010000040000000000000000000000E8F809
:6716EF00000000000000000000000000000000000000000000000000000000000000000000000000000000000000000000000000000000000000000000000000000000000000000100000000002C10000000000000000000000000000208000000000000000000000008FB4A
:671756000C000000000000000000000000000000000000000000000000000000000000000000000000000000000000000000000000000000000000000000000000000000000000100100000000040200000000000000000000210000000000000000000000000000002AFFBF
:6717BD000400000026040000000000000000000000000000000000000000000000000000000000000000000000000000000000000000000000000000000000000000000000000008000000000000080000000000000000000008010022000000000000000000000000F8F86C
:67182400080000800700000000000000000000000000000000000000000000000000000000000000000000000000000000000000000000000000000000000000000000000000C00202000000000C000000000000000000006001008001020000000000000000000000D0FB4F
:67188B00080000000600000000000000000000000000000000000000000000000000000000000000000000000000000000000000000000000000000000000000000000000000000301000000000008000000000000000000800100000000000000000000000000000029F939
:6718F2001000000006000000000000000000000000000000000000000000000000000000000000000000000000000000000000000000000000000000000000000000000000000013000000000030000000000000000000000089000040080000000000000000000000B0FEB7
:6719590000000000000000000000000000000000000000000000000000000000000000000000000000000000000000000000000000000000000000000000000000000000000040000200000000040A0000000000000000002050008000D0000000000000000000000010FA0D
:6719C0000000000000000000000000000000000000000000000000000000000000000000000000000000000000000000000000000000000000000000000000000000000000000000000000000010000000000000000000000001000000C0000000000000000000000030F8C7
:671A2700000000000000000000000000000000000000000000000000000000000000000000000000000000000000000000000000000000000000000000000000000000000000C002000000000010000000000000000000000000020006000000000000000000000000C8FEB8
:671A8E00080000000000000000000000000000000000000000000000000000000000000000000000000000000000000000000000000000000000000000000000000000000000401302000000000008000000000000000000000000000600000000000000000000000072FC18
:671AF500000000000000000000000000000000000000000000000000000000000000000000000000000000000000000000000000000000000000000000000000000000000000002004000000000041000000000000000000000800002604840000000000000000000058FC1B
:671B5C00000000000000000000000000000000000000000000000000000000000000000000000000000000000000000000000000000000000000000000000000000000000000800200000000000C000000000000000000006081008007300000000000000000000000B8FF45
:671BC300040000000000000000000000000000000000000000000000000000000000000000000000000000000000000000000000000000000000000000000000000000000000008300000000000000000000000000000000800000000000000000000000000000000041FC77
:671C2A00000000000000000000000000000000000000000000000000000000000000000000000000000000000000000000000000000000000000000000000000000000000000001300000000002009000000000000000000001002008000000100000000000000000070F81C
:671C91000000000000000000000000000000000000000000000000000000000000000000000000000000000000000000000000000000000000000000000000000000000000000000000000000000000000000000000000000000000000000000000000000000000000E0F913
:671CF800200004800010000240000800012000048000100002400008000120000480001000024000080001200004000000000000000000000000000000002000048000100002400008000120000480001000024000080001200004800010000240000800012000040080F9CA
:671D5F000000000000000000000000000000000000000000000000000000000000000000000000000000000000000000000000000000000000000000000000000000000000000000000000000000000000000000000000000000000000000000000000000000000000E0F944
:671DC60028000480001000024000080001200004800010000240000800012000048000100002400008000120000400000000000000000000000000000000200004800010000240000800012000048000100002400008000120000480001000024000080001200004002AFB47
:671E2D00000000000000000000000000000000000000000000000000000000000000000000000000000000000000000000000000000000000000000000000000000000804400001201000000002000000000000000000000000000000080000000000000000000000018FFC0
:671E9400200004800010000240000800012000048000100002400008000120000480001000024000080001200004000000000000000000000000000000002000048000000002000008000120000080001000024000080001200004800000000240000800012000040080FC8D
:671EFB000400000000000000000000000000000000000000000000000000000000000000000000000000000000000000000000000000000000000000000000000000000000000000000000000000000000000000000000000000000000000000000000000000000000F1FC8F
:671F62002000048000100002400008000120000480001000024000080001200004800010000240000800012000040000000000000000000000000000000020000480000000020000080001200004800010000240000800012000048000100002400008000120000400D0FC5A
:671FC9000000000000000000000000000000000000000000000000000000000000000000000000000000000000000000000000000000000000000000000000000000000000000000000000000000000000000000000000000000000000000000000000000000000000E0F9D8
:672030000000000000000000000000000000000000000000000000000000000000000000000000000000000000000000000000000000000000000000000000000000000000000000000000000000000000000000000000000000000000000000000000000000000000E0F970
:672097000000000000000000000000000000000000000000000000000000000000000000000000000000000000000000000000000000000000000000000000000000000000000000000000000000000000000000000000000000000000000000000000000000000000E0F909
:6720FE000000000000000000000000000000000000000000000000000000000000000000000000000000000000000000000000000000000000000000000000000000000000000000000000000000000000000000000000000000000000000000000000000000000000E0F9A2
:672165000000000000000000000000000000000000000000000000000000000000000000000000000000000000000000000000000000000000000000000000000000000000000000000000040000000000000000000000002000008000000002000000000000000010A8FEB7
:6721CC00000000002000000000000000000000000000000000000000000000000000000000000000000000000000000000000000000000000000000000000000000000000010000000000000000000000000000000000000000000000080000000000000004000000070FF4D
:672233000000000000000000000000000000000000000000000000000000000000000000000000000000000000000000000000000000000000000000000000000000000000000000000000000000000000000000000000000000000000000000000000000000000000E0F96B
:67229A000000000000000000000000000000000000000000000000000000000000000000000000000000000000000000000000000000000000000000000000000000000000000000000000000000000000000000000000000000000000000000000000000000000000E0F904
:672301000000000000000000000000000000000000000000000000000000000000000000000000000000000000000000000000000000000000000000000000000000000000000000000000000000000000000000000000000000000000000000000000000000000000E0F99C
:672368000000000000000000000000000000000000000000000000000000000000000000000000000000000000000000000000000000000000000000000000000000000000000000000000000000000000000000000000000000000000000000000000000000000000E0F935
:6723CF000000000000000000000000000000000000000000000000000000000000000000000000000000000000000000000000000000000000000000000000000000800000008000000000000000000000000000000000000000020000000000000000000000000008C8FBDA
:67243600000000000000000000000000000000000000000000000000000000000000000000000000000000000000000000000000000000000000000000000000000000000000000000000000000010000000000000000000800A00002200000000000000000000000078FB10
:67249D00000000000000000000000000000000000000000000000000000000000000000000000000000000000000000000000000000000000000000000000000000000000200000800000000000000000000000000000000000000000000000000000000000000000040F995
:672504001000000000000000000000000000000000000000000000000000000000000000000000000000000000000000000000000000000000000000000000000000000000000000000000000000000000000000000000000000000000000000000000000000000000F0F878
:67256B00000000000000000000000000000000000000002000000000000000000000000000000000000000000020000000000000000000000000000000000000000000000000000000000000001000000000000000000000000000000010800200000820000000000058FAAD
:6725D2000000000000000000000000000000000000000000020000000000000000000000000000000000000000010000000000000000000000000000000000000000000000000000000000000000000000000000000000000000000000000000000000000000000000D0FAD5
:6726390000000000000000000000000000000000000000400200000000000000000000000000000000000000000900000000000000000000000000000000000000000000000000000000400100A8000000000000000000000000000000204004000010200000000000C0FCB6
:6726A00000000000000000080000000000000000000000040000000000000000000000000000000000000000000000000000000000000000000000000000000000000A402000400000000400000008020000000000204400000000000044A80000A02200000000000088FB7A
:67270700000000000000000800000000000000000000000000000000000000000000000000000000000000000000000000000000000000000000000000000000000002108000000000000800000020010000000000100000000000000040200000800800000000000080F838
:67276E000000000000000000000000000000000000000000000000000000000000000000000000000000000000000000000000000000000000000000000000000000000000000000000000000000000000000000000000000000000000000000000000000000000000E0F92B
:6727D5000000000000000000000000000000000000000000000000000000000000000000000000000000000000000000000000000000000000000000000000000000000000000000000000000000000000000000000000000000000000000000000000000000000000E0F9C4
:67283C000000000000000000000000000000000000000000000000000000000000000000000000000000000000000000000000000000000000000000000000000000000000000000000000000000000000000000000000000000000000000000000000000000000000E0F95C
:6728A3000000000000000000000000000000000000000000000000000000000000000000000000000000000000000000000000000000000000000000000000000000000000000000000000000000000000010000000000000008000000000000000000000000800000F0F85D
:67290A000000000000000000000000000000000000000000000000000000000000000000000000000000000000000000000000000000000000000000000000000000000000000020000000000000000000000000000000000000000000000000000000000000000000E0FB6B
:672971001000000000000000000000000000000000000000000000000000000000000000000000000000000000000000000000000000000000000000000000000000000000000000000000000000000000000000000000000000000000000000000000000000000000F0F807
:6729D8000000000000000000000000000000000000000000000000000000000000000000000000000000000000000000000000000000000000000000000000000000004000000001000000000000000000000000000000000000000000000000000000000000000000B0FDAA
:672A3F000200000000000000000000000000000000000000000000000000000000000000000000000000000000000000000000000000000000000000000000000000000000000000000000000000000000000000000000000000000000000000000000000000000000E0FB53
:672AA6000000000000000000000000000000000000000000000000000000000000000000000000000000000000000000000000000000000000000000000000000000000000000000000000000000000000000000000000000000000000000000000000000000000000E0F9F0
:672B0D000000000000000000000000000000000000000000000000000000000000000000000000000000000000000000000000000000000000000000000000000000000000000000000000000000000000000000000000000001000004000000000000000000000000B0F9B3
:672B7400000000000000000000000000000000000000000000000000000000000000000000000000000000000000000000000000000000000000000000000000000000000000000000000000000000000000000000000000004000000001000004000000000000008038F805
:672BDB000000000000000000000000000000000000000000000000000000000000000000000000000000000000000000000000000000000000000000000000000000000000000000000000000000000000000000000000000000000000000000000000000000000000E0F9BA
:672C42000000000000000000000000000000000000000000000000000000000000000000000000000000000000000000000000000000000000000000000000000000000000000000000000000000000000000000000000000000000000000000000000000000000000E0F952
:672CA9000000000000000000000000000000000000000000000000000000000000000000000000000000000000000000000000000000000000000000000000000000000000000000000000000000000000000000000000000000000000000000000000000000000000E0F9EB
:672D10000000000000000000000000000000000000000000000000000000000000000000000000000000000000000000000000000000000000000000000000000000000000000000000000000000000000000000000000000000000000000000000000000000000000E0F983
:672D77000000000000000000000000000000000000000000000000000000000000000000000000000000000000000000000000000000000000000000000000000000000000000000000000000000000000000000000000000000000000000000000000000000010000F0F80C
:672DDE000000000000000000000000000000000000000000000000000000000000000000000000000000000000000000000000000000000000000000000000000000000000000000000000000000000000000000000000A00000000000000A00000000000000000000C8FB21
:672E45000000000000000000000000000000000000000000000000000000000000000000000000000000000000000000000000000000000000000000000000000000000000000000000000000000000000000000000000000000000000000000000000000000000000E0F94D
:672EAC00080000000000000000000000000000000000000000000000000000000000000000000000000000000000000000000000000000000000000000000000000000000000000002000008000000000000000000000000000000000000000000000000000000002040F954
:672F13000000000000000000000000000000000000000000000000000000000000000000000000000000000000000000000000000000000000000000000000000000000000000000000000000000000000000000000000000000000000000000000000000000000000E0F97E
:672F7A000000000000000000000000000000000000000000000000000000000000000000000000000000000000000000000000000000000000000000000000000000000000000000000000000000000000000000000000000000000000000000000000000000000000E0F917
:672FE100000000000000000000000000000000000000000000000000000000000000000000000000000000000000000000000000000000000000000000000000000000000000000004000012000000000000000000000000000000000000000000000000000000004090FBA8
:673048000000000000000000000000000000000000000000000000000000000000000000000000000000000000000000000000000000000000000000000000000000000000000000010000000000000000000000000000000000000000000000000000000000000000F0F838
:6730AF00120000000000000000000000000000000000000000000000000000000000000000000000000000000000000000000000000000000000000000000000000000000000200000000000000000000000000000000000000000000000000100000000000000008048F8C7
:673116000000000000000000000000000000000000000000000000000000000000000000000000000000000000000000000000000000000000000000000000000000000000000000000000000000000000000000000000000000000000000000000000000000000000E0F979
:67317D00000000000000000000000000002000002000000000000000000000000000000000000000000000000000000000000000000000000000000000000000000000000000840008000200000100010000000000000000000000000000000000000000010000010850FCC5
:6731E400020000000000000000000000000000000000000000400000000000000000000000000000000000000000000000000000000000000000000000000000000000000000000000000000000000000000000000000000000000000000000000000000000000008028FF9B
:67324B000000000000000000000000000040000010000000004000000000000000000000000000000000000000000000000000000000000000000000000000006000008001008850100002008000000100180000000000000000000500800100000000000200A8001050FD9B
:6732B200000000000000280000000000000000000004000000000000000000000000000000000000000000000000000000000000000000000000000000000000000000050000000025000000501000C001000004000000000000000140140100000100000002080009D8FEFA
:673319000200000000002000000000000000000000000000000000000000000000000000000000000000000000000000000000000000000000000000000000000000000100000000100000004010008000000002000000000000000000000000800000000004000084B0FD93
:673380000000000000000000000000000000000000010000000000000000000000000000000000000000000000000000000000000000000000000000000000000000000000000000000000000000000001000000000000000000000000000000000000000000000000E0F80C
:6733E7000000000000000000000000000000000000000000000000000000000000000000000000000000000000000000000000000000000000000000000000000000000000000000000000000000000000000000000000000000000000000000000000000000000000E0F9A6
:67344E0008000000000000000000000000000000000000000000000000000000000000000000000000000000000000000000000000000000000000000000000000000000000000000000000000000000000000000000000000000000000000000000000000000000002CFDE6
:6734B5000000000000000000040000000000000000000000000000000000000000000000000000000000000000000000000000000000000000000000000000000000000000000000000000000000000000000000000000000000010000040000000000000000000000F0F8BF
:67351C00000000000000000000000000000000000000000000000000000000000000000000000000000000000000000000000000000000000000000000000000008000000080008000000000000000000000000000000040200000800000040000000000000000000008FFDD
:673583000000000000000000000000000000000000000000000000000000000000000000000000000000000000000000000000000000000000000000000000000000000000000000000000000000000000000000000000000000000000000000000000000000000000E0F908
:6735EA000000000000000000000000000000000000000000000000000000000000000000000000000000000000000000000000000000000000000000000000000000000000000000000000000000000000000000000000000000000000000000000000000000000000E0F9A1
:673651000000000000000000000000000000000000000000000000000000000000000000000000000000000000000000000000000000000000000000000000000000000000000000000000000000000000000000000000000000000000000000000000000000000000A4FD71
:6736B8000000000000000000000000000000000000000000000000000000000000000000000000000000000000000000000000000000000000000000000000000000000000000000000000000000000000000000000000000000000000000000000000000000000000E0F9D2
:67371F00000000000000000000000000000000000010000000000000000000000000000000000000000000000000000000000000000000000000000000000000000000000000000001000000000000000000000000000000002000008000040000000000000000000068FE28
:67378600000000000000000000000000000000000000000000000000000000000000000000000000000000000000000000000000000000000000000000000000000000801000004600000000001000000000000000000000000000000000000000000000000000000088FD71
:6737ED000000000000000000000000000000000000000000000000000000000000000000000000000000000000000000000000000000000000000000000000000000000000000000000000000000000000000000000000000000000000000000000000000000000000E0F99C
:673854000000000000000000000000000000000000000000000000000000000000000000000000000000000000000000000000000000000000000000000000000000000000000000000000000000000000000000000000000000000000000000000000000000000000E0F934
:6738BB000000000000000000000000000000000000000000000000000000000000800000000000000000000000040000000000000000000000000000000000000000000000000000000000000000000000000000000000000000000000000000400801000000000000F8FDE4
:673922000000000000000000000000000000000000000000000000000000000000000000000000000000000000000000000000000000000000000000000000000000000000000000000000000000000000000000000000000000000000000000000000000000000000E0F965
:673989000000000000000000000000000000000000000000000000000000000000800708000000000000000000300000000000000000000000000000000000000000000000000000000000000000000000000000000000000000000000000000000101000000000000C0FF57
:6739F000000000000000000000000000000000000000000000000000000000000080060000000000000000000030000000000000000000000000000000000000000000000000000000000000000000000000000000000000000000000000000000220000000000000070FF29
:673A5700000000000000000000000000000000000000000000000000000000000000060000000000000000000080200000000000000000000000000000000000000000000000000000000000000000000000000000000000000000000000000000200000000000000060FFE3
:673ABE0000000000000000000000000000000000000000000000000000000000008001040000000000000000000C0000000000000000000000000000000000000000000000000000000000000000000000000000000000000000000000000000C00304000000000000E8FF62
:673B25000000000000000000000000000000000000000000000000000000000000000601000000000000000000001000000000000000000000000000000000000000000000000000000000000000000000000000000000000000000000000000000101000000000000F0FF31
:673B8C000000000000000000000000000000000000000000000000000000000000001600000000000000000000000100000000000000000000000000000000000000000000000000000000000000000000000000000000000000000000000000000300000000000000F0FCCC
:673BF300100000000000000000000000000000000000000000000008000000000080000000000000000000000004060000000000000000000000000000000000000000000000000000000000000000000000000000000000000000000000000000000000000000000038FA97
:673C5A000000000000000000000000000000000000000000000000000000000000000000000000000000000000000000000000000000000000000000000000000000000000000000000000000000000000000000000000000000000000000000000000000000000000E0F92A
:673CC10000000000000000000000000000000000000000000000000000000000008007080000000000000000002C000000000000000000000000000000000000000000000000000000000000000000000000000000000000000000000000000000000000000000000088FA5F
:673D28000C00000000000000000000000000000000000000000000000000000000800600000000000000000000344000000000000000000000000000000000000000000000000000000000000000000000000000000000000000000000000000000000000000000000FAF93B
:673D8F000400000000000000000000000000000000000000000000600400000000004600000000000000000000000000000000000000000000000000000000000000000000000000000000000000000000000000000000000000000000000000000000000000000000C0FB64
:673DF6000800000000000000000000000000000000000000000000788000000000800104000000000000000000284000000000000000000000000000000000000000000000000000000000000000000000000000000000000000000000000000000000000000000000B0FCCD
:673E5D00080000000000000000000000000000000000000000000060000000000000060100000000000000000030000000000000000000000000000000000000000000000000000000000000000000000000000000000000000000000000000000000000000000000039FE28
:673EC400100000000000000000000000000000000000000000000060000000000000260000000000000000000030080000000000000000000000000000000000000000000000000000000000000000000000000000000000000000000000000000000000000000000008FCC5
:673F2B000000040000000000000000000000000000000000000000000000000000800000000000000000000000000000000000000000000000000000000000000000000000000000000000000004000000000000002801000000000000000000000000000000000000D8FFA7
:673F92000000000000000000000000000000000000000000000000000000000000000000000000000000000000000000000000000000000000000000000000000000000000000000000000000000000000000000004010000000000000000000000000000000000000A0FCDC
:673FF900000000000000000000000000000000000000000000000000000000000000060000000000000000000000000000000000000000000000000000000000000000000000000000000000003000000000000000180000000000000000000000000000000000000078FD9E
:6740600008000000000000000000000000000000000000000000000000000000000006000000000000000000000000000000000000000000000000000000000000000000000000000000000000801000000000000048080000000000000000000000000000000000009AF978
:6740C700000030200000000000000000000000000000000000000000000000000000C00000000000000000000000000000000000000000000000000000000000000000000000000000000000003040000000000000202400000000000000000000000000000000000098FC3A
:67412E0000003C000000000000000000000000000000000000000000000000000080010000000000000000000000000000000000000000000000000000000000000000000000000000000000003C00000000000000500000000000000000000000000000000000000088FA5F
:67419500040000400000000000000000000000000000000000000000000000000000000800000000000000000000000000000000000000000000000000000000000000000000000000000000003000000000000000200000000000000000000000000000000000000011F91D
:6741FC00000000000000000000000000000000000000000000000000000000000000000000000000000000000000000000000000000000000000000000000000000000000000000000000000003042000000000000608100000000000000000000000000000000000078FE93
:674263000000000000100000000000000000000000000000000000000000000000801008000000000000000000000000000000000000000000000000000000000000000000000000000000000084100000000203002802000000000000000000000000002104000000E0FB89
:6742CA000000000000000000000000000000000000000000000000000000000000000000000000000000000000000000000000000000000000000000000000000000000000000000000000000000000000000000004010000000000000000000000000000000000000A0FCA1
:67433100000000000000000000000000000000000000000000000000000000000000000000000000000000000000000000000000000000000000000000000000000000000000000000000000002C000000001600001800000000000000000000000000000B0000000020FEA2
:674398000800000000000000000000000000000000000000000000000000000000002001000000000000000000000000000000000000000000000000000000000000000000000000000000000034410000001A10004808000000000000000000000000000D08000000B2F8E7
:6743FF000000000000C0040100000000000000000000000000000000000000000000C000000000000000000000000000000000000000000000000000000000000000000000000000000000000000120000000009002000000000000000000000000000000000000000F8F9A6
:674466000000000000F00000000000000000000000000000000000000000000000800300000000000000000000000000000000000000000000000000000000000000000000000000000000000028000000001400005020000000000000000000000000000A0400000098F832
:6744CD000400000000C00000000000000000000000000000000000000000000000000200000000000000000000000000000000000000000000000000000000000000000000000000000000000034000000001800002800000000000000000000000000000C00000000C9FA7F
:674534000000000000C0000000000000000000000000000000000000000000000000A6000000000000000000000000000000000000000000000000000000000000000000000000000000000000300A0000001805006081000000000000000000000000008C02000000B0FF45
:67459B00100000800000000000000000000000000000000000000000000000000080000000000000000000000000000000000000000000000000000000000000000000000000000000000000000400000000000000680000000034000000000000000000410000340094FC04
:67460200000000000000000000000000000000000000000000000000000000000000000000000000000000000000000000000000000000000000000000000000000000000000000000000000000000000000000000600000000030000000000000000000000200000090FF30
:67466900000000800702000000000000000000000000000000000000000000000000000000000000000000000000000000000000000000000000000000000000000000000000000000000000003C000000000000000000000000300000000000000000000C00000000C0FC2D
:6746D0000C000080060000000000000000000000000000000000000000000000000000000000000000000000000000000000000000000000000000000000000000000000000000000000000000340000000000000000000000003000000000000000000080040000122BFCD0
:67473700040000000600000000000000000000000000000000000000000000000000C60000000000000000000000000000000000000000000000000000000000000000000000000000000000003008000000000000600200000000020000000000000000840000000A39FDEB
:67479E0008000080010200000000000000000000000000000000000000000000008007000000000000000000000000000000000000000000000000000000000000000000000000000000000000380000000000000078800000000C1000000000000000000B10000C003CFFF4
:674805000800000006010000000000000000000000000000000000000000000000000008000000000000000000000000000000000000000000000000000000000000000000000000000000000000080000000000006000000000000000000000000000000400000020D2FADD
:67486C001000000006000000000000000000000000000000000000000000000000001000000000000000000000000000000000000000000000000000000000000000000000000000000000000000020000000000006011000000000000000000000000000C0100800040F887
:6748D300000000804002000000000000000000000000000000000000000000000080400000000000000000000000000000000000000000000000000000000000000000000000000000000000000400000000000000680000000000000000000000000000210800000000FE69
:67493A000000000000000000000000000000000000000000000000000000000000000001000000000000000000000000000000000000000000000000000000000000000000000000000000000000000000000000000000000000000000000000000000000000000000F0F92C
:6749A100000000000201000000000000000000000000000000000000000000000000020000000000000000000000000000000000000000000000000000000000000000000000000000000000003C080000000000000000000000000000000000000000000C0800000010FD45
:674A0800080000004400000000000000000000000000000000000000000000000000240100000000000000000000000000000000000000000000000000000000000000000000000000000000000402000000000000002400000000000000000000000000800000000012F921
:674A6F0000000000C00000000000000000000000000000000000000000000000000010000000000000000000000000000000000000000000000000000000000000000000000000000000000000B0080000000000000002000000000000000000000000008400000000D0FB07
:674AD6000000008007000000000000000000000000000000000000000000000000800701000000000000000000000000000000000000000000000000000000000000000000000000000000000038000000000000001810000000000000000000000000000B1000000098FF58
:674B3D000400000000010000000000000000000000000000000000000000000000000201000000000000000000000000000000000000000000000000000000000000000000000000000000000030080000000000000040000000000000000000000000000400000000F9FC98
:674BA4000000000026000000000000000000000000000000000000000000000000004600000000000000000000000000000000000000000000000000000000000000000000000000000000000000010000000000000001000000000000000000000000000C0100000058FCDB
:674C0B00000000804002000000000000000000000000000000000000000000000080460100000000000000000000000000000000000000000000000000000000000000000000000008040000000400001000000000680000000000000000000040100000010000140A58FB6F
:674C72000000000000000000000000000000000000000000000000000000000000000000000000000000000000000000000000000000000000000000000000000000000000000000002000000000000000000000000000000000000000000000000001000000002000F0F9B1
:674CD90000000000020000000000000000000000000000000000000000000000008007000000000000000000000000000000000000000000000000000000000000000000000000006000000000300000C0000100000000000000000000000000000304000C00000C00E8FB98
:674D400008000000440200000000000000000000000000000000000000000000008044010000000000000000000000000000000000000000000000000000000000000000000000000021000000000400C0020000000024000000000000000000000800008C020024043AFCFA
:674DA70000000000C00000000000000000000000000000000000000000000000000026000000000000000000000000000000000000000000000000000000000000000000000000002004000000B000000084000000000100000000000000000000210000201000102130F9BB
:674E0E00000000800700000000000000000000000000000000000000000000000080070800000000000000000000000000000000000000000000000000000000000000000000000058800000003C0800F0000000001810000000000000000000C00204000F00002800B0FD49
:674E750004000000000100000000000000000000000000000000000000000000000006000000000000000000000000000000000000000000000000000000000000000000000000002080000000300000C0800000000040000000000000000000000100000C0200100079FCE7
:674EDC0000000000460000000000000000000000000000000000000000000000000016010000000000000000000000000000000000000000000000000000000000000000000000006001000000302000C0040000000001000000000000000000004300002C0000B040C8FE77
:674F4300000004800010180000000000000000000000100000000000000000000080400000000000000000000000000000000000000000000000000000000000000000000000000000000000003400005008000000680000000000800000000040000000010000340028FF7B
:674FAA000000000000000000000000000000000000000000000000000000000000000001000000000000000000000000000000000000000000000000000000000000000000000000000000000030000000400000006000000000000000080000000000000000003000E8FFB0
:675011000000008007B2000000000000000000000000000000000000000000000000060000000000000000000000000000000000000000000000000000000000000000000000000000000000003C000040000000000000000000000002020000000300000C1000000040FE1C
:675078000800008006D0400000000000000000000000000000000000000000000000A000000000000000000000000000000000000000000000000000000000000000000000000000000000000034000080480000000000000000000040000000001304000C00000000C2FC76
:6750DF00000030204604040100000000000000000000C0020100000000000000000012000000000000000000000000000000000000000000000000000000000000000000000000000000000000000800C028000000608400000000008000000000200100201000B00008F9A0
:6751460000003C8001A0000000000000000000000000F0000000000000000000008005010000000000000000000000000000000000000000000000000000000000000000000000000000000000080000B0000000007800000000008001000000C00300000F00003C20D0FA86
:6751AD000400300006C1200000000000000000000000C0000000000000000000000002010000000000000000000000000000000000000000000000000000000000000000000000000000000000000000C0000000006000000000000006000000008300000C0200300891FF3E
:675214000000300016C0040000000000000000000000C000000000000000000000004600000000000000000000000000000000000000000000000000000000000000000000000000000000000000000080080100006014000000000086000000000300008C0000300080F869
:67527B000000000000000000000000000000000000000000000000000000000000000000000000000000000000000000000000000000000000000000000000000000000000000000000000000000110000000000000010000000000000000000000000000000000000A4FD0A
:6752E200200004800010000240000800012000048000100002400008000120000480001000024000080001200004000000000000000000000000000000002000048000100002400008000120000480001000024000080001200004800010000240000800012000040080F9AA
:675349000000000000000000000000000000000000000000000000000000000000000000000000000000000000000000000000000000000000000000000000000000000000000000000000000000000000000000000000000000000000000000000000000000000000E0F924
:6753B0002800048000100002400008000120000480001000024000080001200004800010000240000800012000040000000000000000000000000000000020000480001000024000080001200000800010000240000000012000048000100002400008000120000400F3FA6B
:675417000000000000804400000000000000000000000000000000000000000000000000000000000000000000200000000000000000000000000000000000000000000000000000000000000020010000009008004012000000000000000000000000004804002008D1F901
:67547E0020000400000000024000080001200004800010000240000800012000040000100002400008000120000008000000000000000000000000000000200004800010000240000800012000009000100000400000000120000480001000024000080000200000002AF872
:6754E5000400000000000000000000000000000000000000000000000000000000000000000000000000000000000000000000000000000000000000000000000000000000000000000000000000000000000000000000000000000000000000000000000000000000C2FF9B
:67554C0020000480100200024000080001200004800010000240000800012000048010120002400008000120000000000000000000000000000000000000200004800010000240000800012000008000100000400000000120000480001000024000080000200000002AFA95
:6755B3000000000000000000000000000000000000000000000000000000000000000000000000000000000000000000000000000000000000000000000000000000000000000000000000000000000000000000000000000000000000000000000000000000000000E0F9B8
:67561A000000000000000000000000000000000000000000000000000000000000000000000000000000000000000000000000000000000000000000000000000000000000000000000000000000000000000000000000000000000000000000000000000000000000E0F950
:675681000000000000000000000000000000000000000000000000000000000000000002000000000000000000000000000000000000000000000000000000000000000000000000000000000000000000000000000000000000000000000000000000000000000000C0F907
:6756E8000000000000000000000000000000000000000000000000000000000000000000000000000000000000000000000000000000000000000000000000000000000000000000000000000000000000000000000000000000000000000000000000000000000000E0F982
:67574F001000000000000000000000000000000000000000000000000000000000000004000000000000000000000000000000000000000000000000000000000000000000000000002000000000000000000002000000000000000000000000000000000005000000E0FADE
:6757B6000000000000000000000000000000000000000000000000000000000000000000000000000000000000000000000000000000000000000000000000000000000000000000000000000020000000000000000000000000000000000000800000000000000080E8FB89
:67581D000000000000000000000000000000000000000000000000000000000000000000000000000000000000000000000000000000000000000000000000000000000000000000000000000000000000000000000000000000000000000000000000000000000000E0F94B
:675884000200000000000000000000000000000000000000000000000000000000000000000000000000000000000000000000000000000000000000000000000000000000000000000000000000000000000000000000000000000000000000000000000000000000E0FBE0
:6758EB000000000000000000000000000000000000000000000000000000000000000000000000000000000000000100000000000000000000000000000000000000000000000000000000000000000000000000000002000000000000000000000000000000000001D0F88A
:675952000000000000000000000000000000000000000000000000000000000000000000000000000000000000000000000000000000000000000000000000000000000000000000000000000000000000000000000000000000000000000000000000000000000000E0F915
:6759B9000000000000000000000000000000000000000000000000000000000000000000000000000000000000000000000000000000000000000000000000000000000000000000000000000000000000400000000040000000000000000000000100000000000000A0FC6A
:675A2000000000000000000000000000000000000000000000000000000000000000000000000000000000000000000000000000000000000000000000000000000000000000000000000000000000000000000000000000000000000000000000000400000200000080F9A0
:675A87000200000000000000000000000000000000000000000000000000000000000000000000000000000000000000000000000000000000000000000000000000000000000000000000000000000000000000000000000000000000000000000000000000000000E0FBDB
:675AEE00000000000000000000000000000000000000000000000000000000000000000000000000000000000000000000000000000000000000000000000000000000000000000000000000000000000004000000000000000000000000000000000000000000008028FDA8
:675B5500000010000000000000000000000000000000000000000000000002000000000000000000000000000000000000000000000000000000000000002000000000000000000010000000000400000000000001000000000000800000000000000000000800000018F80A
:675BBC000000000000000000000000000000000000000000004000000000000000000000000000000000000040000000000000000000000000000000000000000000000000000000000000000000000000000000000000000000000000000000000000000000000000A0F969
:675C2300000008000000000000000000000000000000000000400000000004000000000000000000000000004001000000000000000000000000000000004000000000000000000010000000006800000000008000000000000000000100008002000000000400000018FCBA
:675C8A000000000000400000000000000000000000000000000000000040000000000000000000000000000018010400000000000000000000000000000000000000000100000000000000A0022008020000080008200800020000000000008000810000000000000038FBDB
:675CF1000000000000400000000000000000000000000000000000000000000000000000000000000000000000000000000000000000000000000000000000000000000400000000000000800000200400000800001000000400000000000000400002000000000000F8FC12
:675D5800000000000000000000000000000000000000000000000000000000000000000000000000000000000000080000000000000000000000000000000000000000000000000000000000000400000000000000002000000000000000000000000000000000000028FB95
:675DBF000000000000000000000000000000000000000000000000000000000000000000000000000000000000000000000000000000000000000000000000000000000000000000000000000000000000000000000000000000000000000000000000000000000000E0F9A4
:675E26000000000000000000000000000000000000000000000000000000000000000000000000000000000000000000000000000000000000000000000000000000000000000000000000000000000000000000000000000000000000000000000000000000000000E0F93C
:675E8D000000000000000000000000000000000000000000000000000000000000000000000000000000000000000000000000000000000000000000000000000000000000000000000000000000000000000000000000000000400000000000000000000000000000A0F9D5
:675EF400000000000000000000000000000000000000000000000000000000000000000000000000000000000000000000000000000000000000000000000000000000000000000040000000000000000000000000005000000000000000000000000000000000002280FE17
:675F5B000000000000000000000000000000000000000000000000000000000000000000000000000000000000000000000000000000000000000000000000000000000000000000000000000000000000000000000000000000000000000000000000000000000000E0F906
:675FC200000000000040000000000000000000000000000000000000000000000000000000000000000000000000000000000000000000000000000000000000000000000000000000000000001000000000080000000000000000000000000000000000040000000028FCF8
:676029000000000000000000000000000000000000000000000000000000000000000000000000000000000000000000000000000000000000000000000000000000000000000000000000000000000000000000000000000000000000000000000000000000000000E0F937
:67609000000000080000000000000000000000000000000000000000000000000000000100000000000000000000000000000000000000000000000000000000000000000000000000000000000000000000000000000000000000000000000000000000000000000078F92F
:6760F700000000000000000000000000000000000000000000000000000000000000000000000000000000000000000000000000000000000000000000000000000000000000000000000000000020000000000000000000000000000000000000000000080000000048F9D9
:67615E000000000000000000000000000000000000000000000000000000000000000000000000000000000000000000000000000000000000000000000000000000000000000000000000000000000000000000000000000000000000000000000000000000000000E0F901
:6761C5000000000000000000000000000000000000000000000000000000000000000000000000000000000000000000000000000000000000000000000000000000000000000000000000000000000000000000000000000000000000000000000000000000000000E0F99A
:67622C000000000000000000000000000000000000000000000000000000000000000000000000000000000000000000000000000000000000000000000000000000000000000000000000000000000000000000000000000000000000000000000000000000000000E0F932
:676293000000000000000000000000000000000000000000000000000000000000000000000000000000000000000000000000000000000000000000000000000000000000000000000000000000000000000000000000000000000000000000000000000000000000E0F9CB
:6762FA00000000001000400000000000000000000000000000000000000000000000000000000000000000000000000000000000000000000000000000000000000000000000000000000000000800000000040000100000000000000000000000000000000000000030F9A8
:6763610000000000000000000000000000000000000000400000000000000000000000000000000000000000000000000000000000000000000000000000000000000000000000000000000000200C0000000000004000000000000000000000000001000000002000D8FD33
:6763C8000000000000000000000000000000000000000000000000000000000000000000000000000000000000000000000000000000000000000000000000000000000000000000000000000000000000000000000000000000000000000000000000000000000001F0F984
:67642F000000000000000000000000000000000000000000000000000000000000000000000000000000000000084000000000000000000000000000000000000000000000000000800000000000000000800000000000000000000000000000000000000000000000A8FD19
:67649600000000000800000000000000000000000000000000000000000000000000000000000000000000000000000000000000000000000000000000000000000000000000000000000000000000000000000000800000000000000200000000010000100000000058F9B3
:6764FD00000000000000000000000000000000000000000000000000000000000000000000000000000000000000000000000000000000000000000000000000000000000000000000000000000000008000000000000000000000000000000000000000000000000068F957
:676564000000000000000000000000000000000000000000000000000000000000000000000000000000000000000000000000000000000000000000000000000000000000000000000000000000000000000000000000000000000000000000000000000000000000E0F9F7
:6765CB000000000000000000000000000000000000000000000000000000000000000000000000000000000000000000000000000000000000000000000000000000000000000000008000000000000000000000000000000000000000000000000204000010000000A8FA31
:676632000000000000000000000000000000000000000000000000000000000000000000000000000000000000000000000000000000000000000000000000000000000000000000000000000000000000000000000000000000000000000000000000004000000000A0FD24
:67669900100000000000000000000000000000000000000000000000000000000000000000000000000000000000000000000000000000000000000000000000000000000000000000000000000000000000000000000000000000000000000000000000000000008078F89A
:676700000000000001000000000000000000000000000000000000000000000000008000000000000000000000000000000000000000000000000000000000000000000000000000000000000000000000000000000000000000000000000000000000000000000000F8F9C0
:676767000000000000000000000000000000010404000000000000000000000000000000000000000000000000000000000000000000000000000000000000000000000000000000000000080011000000000000000000000000000000000000000000000000000520A8FAE2
:6767CE00020000000000000000000000000000000000000000100002000000000000000000000000000000000000000000000000000000000000000000000000000000000000000000000000000020010000000000000000004000000000000000000000004000008078F9BE
:676835000000000000400000000000000040000810000000001000020000000000000200000000000000000000000000000000000000000000000000000000000000000000300000000000048008A00000000000002000180000010000000000000000002820A80810E0FBD8
:67689C00044004800E00020000000000000000000000100000000000000000000000000000000000000000000000000000000000000000000000000000008000000002000000000000008C54B2020000900000020100A804000920808400000080000010040009000829FB62
:676903000000010001000000000000000000000000000000000000000000000000000000000000000000000000000000000000000000000000000000000000010000010000000000000002000000000000000000020000020000000000000000000000200400000004A0FC5F
:67696A00000000000200000000000000000000000000000000000000000000000000000000000000000000000000000000000000000000000000000000000000000000000000000000000200400000002000000200000800400008000102000000000000002000000078FB7A
:6769D100000080000000000000000000000000000000000000000000000000000000000000000000000000000000000000000000000000000000000000000000000000000000000000000000000000000000000000000000000000000000000000000000000000000060F986
:676A3800000000000400000000000000000000000000000000000000000000000000040000000000000000000000000000000000000000000000000000000000000000000000000000000000000000000000000000000000000000000000000000000000000000008028FD4A
:676A9F000000000000000000000000000000000000000000000000000000000000000000000000000000000000000000000000000000000000000000000000000000000000000000000000000000000000020000000000000000000000000000000000000000000000C0FBD3
:676B06000000000000000000000000000000000000000000000000000000000000800000000000000000000000004000000000000000000000000000000000000000000000000000000000000000000000000000000000000000000000000000000000000000000080A8FD43
:676B6D00000000000010010000000000000000000000000000000000000000000000000000000000000000000004000000000000000000000000000000000000000000000000000000000000001000000001020000080000000000000000000000000000040000040028FE63
:676BD4000000000000000000000000000000000000000000000000000000000000000000000000000000000000000000000000000000000000000000000000000000000000000000000000000000000000000000000000000000000000000000000000000000000000E0F981
:676C3B000000000000000000000000000000000000000000000000000000000000000000000000000000000000000000000000000000000000000000000000000000000000000000000000000000000000000000000000000000000000000000000000000000000000E0F919
:676CA2000000000000000000000000000000000000000000000000000000000000000000000000000000000000000000000000000000000000000000000000000000000000000000000000000000000000000000000000000000000000000000000000000000000000E0F9B2
:676D09000000000004000000000000000000000000000000000000008000000000000000000000000000000000000000000000000000000000000000000000000000000000000000000000000004000000000000000000000000008000000000400000004100000000E0FCBE
:676D70000000000000000000000000000000000000000000000000000000000000000000000000000000000000000000000000000000000000000000000000000000000000000000000000000000400000000000000000000000008000080000000000000000000000A0F95B
:676DD700000000800000000000000000000000000000000000000000000000000080800000000000000000000000000000000000000000000000000000000000000000000000000000000000000000000000000000000000000000000000000000000000000000000060F97C
:676E3E000000000000000000000000000000000000000000000000000000000000000000000000000000000000000000000000000000000000000000000000000000000000000000000000000000000000000000000000000000000000000000000000000000000000E0F914
:676EA500000000000000000000000000000000000000000000000000000000000000000000000000000000000000000000000000000000000000000000000000048000000000406100000000000000000000000000000001000000000000000000000000000000000028FE3A
:676F0C000000000000000000000000000000000000000000000000000000000000000000000000000000000000000000000000000000000000000000000000000000000000000000000000000000000000000000000000000000000000000000000000000000000000E0F945
:676F73000000000000000000000000000000000000000000000000000000000000000000000000000000000000000000000000000000000000000000000000003C8007000000C0010000000000000000000000000000000F000000000000000000000000000000000080FAAA
:676FDA0000000000000000000000000000000000000000000000000000000000000000000000000000000000000000000000000000000000000000000000000034800600000040000100000000000000000000000000000D000000000000000000000000000000000030F820
:6770410000000000000000000000000000000000000000000000000000000000000000000000000000000000000000000000000000000000000000000000000030021600000000000100000000000000000000000000002C0000000000000000000000000000000000F8F982
:6770A8000000000000000000000000000000000000000000000000000000000000000000000000000000000000000000000000000000000000000000000000003C8807010000C0020000000000000000000000000000000F020000000000000000000000000000000030F9B9
:67710F00000000000000000000000000000000000000000000000000000000000000000000000000000000000000000000000000000000000000000000000000000000080000000300000000000000000000000000000000000000000000000000000000000000000058F9BD
:67717600000000000000000000000000000000000000000000000000000000000000000000000000000000000000000000000000000000000000000000000000002220000000000B02000000000000000000000000000020100000000000000000000000000000000040F8FB
:6771DD000000000000000000000000000000000000000000000000000000000000000000000000000000000000000000000000000000000000000000000000003480C0000000000000000000000000000000000000000001000000000000000000000000000000000088FF4F
:677244000000000000000000000000000000000000000000000000000000000000000000000000000000000000000000000000000000000000000000000000003000000000000000000000000000000000000000000000000000000000000000000000000000000000D0FAE9
:6772AB000000000000000000000000000000000000000000000000000000000000000000000000000000000000000000000000000000000000000000000000000C800500000000000000000000000000000000000000000F0000000000000000000000000000000000C8FF15
:6773120008000000000000000000000000000000000000000000000000000000000000000000000000000000000000000000000000000000000000000000000004A21608000000000000000000000000000000000000004102000000000000000000000000000000004AF8C3
:6773790000000000000000000000000000000000000000000000000000000000000000000000000000000000000000000000000000000000000000000000000080081004000000000000000000000000000000000000008C0000000000000000000000000000000000B0F9DC
:6773E0000000000000000000000000000000000000000000000000000000000000000000000000000000000000000000000000000000000000000000000000003C000500000000000000000000000000000000000000000E020000000000000000000000000000000060FF96
:6774470004000000000000000000000000000000000000000000000000000000000000000000000000000000000000000000000000000000000000000000000000080600000000000000000000000000000000000000000D000000000000000000000000000000000049FF77
:6774AE0000000000000000000000000000000000000000000000000000000000000000000000000000000000000000000000000000000000000000000000000030020601000000000000000000000000000000000000000C0400000000000000000000000000000000D8FD59
:6775150010000000000000000000000000000000000000000000000000000000000000000000000000000020000000000000000000000000000000000000000034800600004A00000000000000000000000000000000000D000000000000004A00000000000000000098F8F4
:67757C0000000000000000000000000000000000000000000000000000000000000000000000000000000000000000000000000000000000000000000000000000000600001004000000000000000000000000000000000C000000000000001004000000000000000098FADC
